{
  "_format": "hh-sol-artifact-1",
  "contractName": "MakeNFT2",
  "sourceName": "contracts/MakeNFT2.sol",
  "abi": [
    {
      "inputs": [],
      "stateMutability": "nonpayable",
      "type": "constructor"
    },
    {
      "inputs": [
        {
          "internalType": "address",
          "name": "sender",
          "type": "address"
        },
        {
          "internalType": "uint256",
          "name": "tokenId",
          "type": "uint256"
        },
        {
          "internalType": "address",
          "name": "owner",
          "type": "address"
        }
      ],
      "name": "ERC721IncorrectOwner",
      "type": "error"
    },
    {
      "inputs": [
        {
          "internalType": "address",
          "name": "operator",
          "type": "address"
        },
        {
          "internalType": "uint256",
          "name": "tokenId",
          "type": "uint256"
        }
      ],
      "name": "ERC721InsufficientApproval",
      "type": "error"
    },
    {
      "inputs": [
        {
          "internalType": "address",
          "name": "approver",
          "type": "address"
        }
      ],
      "name": "ERC721InvalidApprover",
      "type": "error"
    },
    {
      "inputs": [
        {
          "internalType": "address",
          "name": "operator",
          "type": "address"
        }
      ],
      "name": "ERC721InvalidOperator",
      "type": "error"
    },
    {
      "inputs": [
        {
          "internalType": "address",
          "name": "owner",
          "type": "address"
        }
      ],
      "name": "ERC721InvalidOwner",
      "type": "error"
    },
    {
      "inputs": [
        {
          "internalType": "address",
          "name": "receiver",
          "type": "address"
        }
      ],
      "name": "ERC721InvalidReceiver",
      "type": "error"
    },
    {
      "inputs": [
        {
          "internalType": "address",
          "name": "sender",
          "type": "address"
        }
      ],
      "name": "ERC721InvalidSender",
      "type": "error"
    },
    {
      "inputs": [
        {
          "internalType": "uint256",
          "name": "tokenId",
          "type": "uint256"
        }
      ],
      "name": "ERC721NonexistentToken",
      "type": "error"
    },
    {
      "inputs": [
        {
          "internalType": "address",
          "name": "owner",
          "type": "address"
        }
      ],
      "name": "OwnableInvalidOwner",
      "type": "error"
    },
    {
      "inputs": [
        {
          "internalType": "address",
          "name": "account",
          "type": "address"
        }
      ],
      "name": "OwnableUnauthorizedAccount",
      "type": "error"
    },
    {
      "anonymous": false,
      "inputs": [
        {
          "indexed": true,
          "internalType": "address",
          "name": "owner",
          "type": "address"
        },
        {
          "indexed": true,
          "internalType": "address",
          "name": "approved",
          "type": "address"
        },
        {
          "indexed": true,
          "internalType": "uint256",
          "name": "tokenId",
          "type": "uint256"
        }
      ],
      "name": "Approval",
      "type": "event"
    },
    {
      "anonymous": false,
      "inputs": [
        {
          "indexed": true,
          "internalType": "address",
          "name": "owner",
          "type": "address"
        },
        {
          "indexed": true,
          "internalType": "address",
          "name": "operator",
          "type": "address"
        },
        {
          "indexed": false,
          "internalType": "bool",
          "name": "approved",
          "type": "bool"
        }
      ],
      "name": "ApprovalForAll",
      "type": "event"
    },
    {
      "anonymous": false,
      "inputs": [
        {
          "indexed": false,
          "internalType": "uint256",
          "name": "_fromTokenId",
          "type": "uint256"
        },
        {
          "indexed": false,
          "internalType": "uint256",
          "name": "_toTokenId",
          "type": "uint256"
        }
      ],
      "name": "BatchMetadataUpdate",
      "type": "event"
    },
    {
      "anonymous": false,
      "inputs": [
        {
          "indexed": false,
          "internalType": "uint256",
          "name": "_tokenId",
          "type": "uint256"
        }
      ],
      "name": "MetadataUpdate",
      "type": "event"
    },
    {
      "anonymous": false,
      "inputs": [
        {
          "indexed": true,
          "internalType": "address",
          "name": "previousOwner",
          "type": "address"
        },
        {
          "indexed": true,
          "internalType": "address",
          "name": "newOwner",
          "type": "address"
        }
      ],
      "name": "OwnershipTransferred",
      "type": "event"
    },
    {
      "anonymous": false,
      "inputs": [
        {
          "indexed": true,
          "internalType": "address",
          "name": "from",
          "type": "address"
        },
        {
          "indexed": true,
          "internalType": "address",
          "name": "to",
          "type": "address"
        },
        {
          "indexed": true,
          "internalType": "uint256",
          "name": "tokenId",
          "type": "uint256"
        }
      ],
      "name": "Transfer",
      "type": "event"
    },
    {
      "inputs": [
        {
          "internalType": "address",
          "name": "to",
          "type": "address"
        },
        {
          "internalType": "uint256",
          "name": "tokenId",
          "type": "uint256"
        }
      ],
      "name": "approve",
      "outputs": [],
      "stateMutability": "nonpayable",
      "type": "function"
    },
    {
      "inputs": [
        {
          "internalType": "address",
          "name": "owner",
          "type": "address"
        }
      ],
      "name": "balanceOf",
      "outputs": [
        {
          "internalType": "uint256",
          "name": "",
          "type": "uint256"
        }
      ],
      "stateMutability": "view",
      "type": "function"
    },
    {
      "inputs": [
        {
          "internalType": "address",
          "name": "addr",
          "type": "address"
        }
      ],
      "name": "deleteNFT",
      "outputs": [],
      "stateMutability": "nonpayable",
      "type": "function"
    },
    {
      "inputs": [
        {
          "internalType": "uint256",
          "name": "tokenId",
          "type": "uint256"
        }
      ],
      "name": "getApproved",
      "outputs": [
        {
          "internalType": "address",
          "name": "",
          "type": "address"
        }
      ],
      "stateMutability": "view",
      "type": "function"
    },
    {
      "inputs": [
        {
          "internalType": "address",
          "name": "addr",
          "type": "address"
        }
      ],
      "name": "getTokenId",
      "outputs": [
        {
          "internalType": "uint256",
          "name": "",
          "type": "uint256"
        }
      ],
      "stateMutability": "view",
      "type": "function"
    },
    {
      "inputs": [
        {
          "internalType": "address",
          "name": "owner",
          "type": "address"
        },
        {
          "internalType": "address",
          "name": "operator",
          "type": "address"
        }
      ],
      "name": "isApprovedForAll",
      "outputs": [
        {
          "internalType": "bool",
          "name": "",
          "type": "bool"
        }
      ],
      "stateMutability": "view",
      "type": "function"
    },
    {
      "inputs": [
        {
          "internalType": "address",
          "name": "addr",
          "type": "address"
        }
      ],
      "name": "isMinted",
      "outputs": [
        {
          "internalType": "bool",
          "name": "",
          "type": "bool"
        }
      ],
      "stateMutability": "view",
      "type": "function"
    },
    {
      "inputs": [
        {
          "internalType": "address",
          "name": "addr",
          "type": "address"
        },
        {
          "internalType": "string",
          "name": "uri",
          "type": "string"
        }
      ],
      "name": "mint",
      "outputs": [],
      "stateMutability": "nonpayable",
      "type": "function"
    },
    {
      "inputs": [],
      "name": "name",
      "outputs": [
        {
          "internalType": "string",
          "name": "",
          "type": "string"
        }
      ],
      "stateMutability": "view",
      "type": "function"
    },
    {
      "inputs": [],
      "name": "owner",
      "outputs": [
        {
          "internalType": "address",
          "name": "",
          "type": "address"
        }
      ],
      "stateMutability": "view",
      "type": "function"
    },
    {
      "inputs": [
        {
          "internalType": "uint256",
          "name": "tokenId",
          "type": "uint256"
        }
      ],
      "name": "ownerOf",
      "outputs": [
        {
          "internalType": "address",
          "name": "",
          "type": "address"
        }
      ],
      "stateMutability": "view",
      "type": "function"
    },
    {
      "inputs": [],
      "name": "renounceOwnership",
      "outputs": [],
      "stateMutability": "nonpayable",
      "type": "function"
    },
    {
      "inputs": [
        {
          "internalType": "address",
          "name": "from",
          "type": "address"
        },
        {
          "internalType": "address",
          "name": "to",
          "type": "address"
        },
        {
          "internalType": "uint256",
          "name": "tokenId",
          "type": "uint256"
        }
      ],
      "name": "safeTransferFrom",
      "outputs": [],
      "stateMutability": "nonpayable",
      "type": "function"
    },
    {
      "inputs": [
        {
          "internalType": "address",
          "name": "from",
          "type": "address"
        },
        {
          "internalType": "address",
          "name": "to",
          "type": "address"
        },
        {
          "internalType": "uint256",
          "name": "tokenId",
          "type": "uint256"
        },
        {
          "internalType": "bytes",
          "name": "data",
          "type": "bytes"
        }
      ],
      "name": "safeTransferFrom",
      "outputs": [],
      "stateMutability": "nonpayable",
      "type": "function"
    },
    {
      "inputs": [
        {
          "internalType": "address",
          "name": "operator",
          "type": "address"
        },
        {
          "internalType": "bool",
          "name": "approved",
          "type": "bool"
        }
      ],
      "name": "setApprovalForAll",
      "outputs": [],
      "stateMutability": "nonpayable",
      "type": "function"
    },
    {
      "inputs": [
        {
          "internalType": "address",
          "name": "addr",
          "type": "address"
        },
        {
          "internalType": "string",
          "name": "uri",
          "type": "string"
        }
      ],
      "name": "setNFT",
      "outputs": [],
      "stateMutability": "nonpayable",
      "type": "function"
    },
    {
      "inputs": [
        {
          "internalType": "bytes4",
          "name": "interfaceId",
          "type": "bytes4"
        }
      ],
      "name": "supportsInterface",
      "outputs": [
        {
          "internalType": "bool",
          "name": "",
          "type": "bool"
        }
      ],
      "stateMutability": "view",
      "type": "function"
    },
    {
      "inputs": [],
      "name": "symbol",
      "outputs": [
        {
          "internalType": "string",
          "name": "",
          "type": "string"
        }
      ],
      "stateMutability": "view",
      "type": "function"
    },
    {
      "inputs": [
        {
          "internalType": "uint256",
          "name": "_tokenId",
          "type": "uint256"
        }
      ],
      "name": "tokenExists",
      "outputs": [
        {
          "internalType": "bool",
          "name": "",
          "type": "bool"
        }
      ],
      "stateMutability": "view",
      "type": "function"
    },
    {
      "inputs": [
        {
          "internalType": "uint256",
          "name": "tokenId",
          "type": "uint256"
        }
      ],
      "name": "tokenURI",
      "outputs": [
        {
          "internalType": "string",
          "name": "",
          "type": "string"
        }
      ],
      "stateMutability": "view",
      "type": "function"
    },
    {
      "inputs": [
        {
          "internalType": "address",
          "name": "from",
          "type": "address"
        },
        {
          "internalType": "address",
          "name": "to",
          "type": "address"
        },
        {
          "internalType": "uint256",
          "name": "tokenId",
          "type": "uint256"
        }
      ],
      "name": "transferFrom",
      "outputs": [],
      "stateMutability": "nonpayable",
      "type": "function"
    },
    {
      "inputs": [
        {
          "internalType": "address",
          "name": "newOwner",
          "type": "address"
        }
      ],
      "name": "transferOwnership",
      "outputs": [],
      "stateMutability": "nonpayable",
      "type": "function"
    }
  ],
  "bytecode": "0x608060405260006008553480156200001657600080fd5b50336040518060400160405280600781526020017f50726f66696c65000000000000000000000000000000000000000000000000008152506040518060400160405280600481526020017f5052464c00000000000000000000000000000000000000000000000000000000815250816000908162000095919062000477565b508060019081620000a7919062000477565b505050600073ffffffffffffffffffffffffffffffffffffffff168173ffffffffffffffffffffffffffffffffffffffff16036200011f5760006040517f1e4fbdf7000000000000000000000000000000000000000000000000000000008152600401620001169190620005a3565b60405180910390fd5b62000130816200013760201b60201c565b50620005c0565b6000600760009054906101000a900473ffffffffffffffffffffffffffffffffffffffff16905081600760006101000a81548173ffffffffffffffffffffffffffffffffffffffff021916908373ffffffffffffffffffffffffffffffffffffffff1602179055508173ffffffffffffffffffffffffffffffffffffffff168173ffffffffffffffffffffffffffffffffffffffff167f8be0079c531659141344cd1fd0a4f28419497f9722a3daafe3b4186f6b6457e060405160405180910390a35050565b600081519050919050565b7f4e487b7100000000000000000000000000000000000000000000000000000000600052604160045260246000fd5b7f4e487b7100000000000000000000000000000000000000000000000000000000600052602260045260246000fd5b600060028204905060018216806200027f57607f821691505b60208210810362000295576200029462000237565b5b50919050565b60008190508160005260206000209050919050565b60006020601f8301049050919050565b600082821b905092915050565b600060088302620002ff7fffffffffffffffffffffffffffffffffffffffffffffffffffffffffffffffff82620002c0565b6200030b8683620002c0565b95508019841693508086168417925050509392505050565b6000819050919050565b6000819050919050565b600062000358620003526200034c8462000323565b6200032d565b62000323565b9050919050565b6000819050919050565b620003748362000337565b6200038c62000383826200035f565b848454620002cd565b825550505050565b600090565b620003a362000394565b620003b081848462000369565b505050565b5b81811015620003d857620003cc60008262000399565b600181019050620003b6565b5050565b601f8211156200042757620003f1816200029b565b620003fc84620002b0565b810160208510156200040c578190505b620004246200041b85620002b0565b830182620003b5565b50505b505050565b600082821c905092915050565b60006200044c600019846008026200042c565b1980831691505092915050565b600062000467838362000439565b9150826002028217905092915050565b6200048282620001fd565b67ffffffffffffffff8111156200049e576200049d62000208565b5b620004aa825462000266565b620004b7828285620003dc565b600060209050601f831160018114620004ef5760008415620004da578287015190505b620004e6858262000459565b86555062000556565b601f198416620004ff866200029b565b60005b82811015620005295784890151825560018201915060208501945060208101905062000502565b8683101562000549578489015162000545601f89168262000439565b8355505b6001600288020188555050505b505050505050565b600073ffffffffffffffffffffffffffffffffffffffff82169050919050565b60006200058b826200055e565b9050919050565b6200059d816200057e565b82525050565b6000602082019050620005ba600083018462000592565b92915050565b612c4f80620005d06000396000f3fe608060405234801561001057600080fd5b50600436106101415760003560e01c806384799eac116100b8578063c87b56dd1161007c578063c87b56dd1461035e578063d0def5211461038e578063e985e9c5146103aa578063f1537686146103da578063f2fde38b1461040a578063f9f2a7ce1461042657610141565b806384799eac146102ce5780638da5cb5b146102ea57806395d89b4114610308578063a22cb46514610326578063b88d4fde1461034257610141565b806323b872dd1161010a57806323b872dd1461021057806342842e0e1461022c57806352d218ba146102485780636352211e1461026457806370a0823114610294578063715018a6146102c457610141565b8062923f9e1461014657806301ffc9a71461017657806306fdde03146101a6578063081812fc146101c4578063095ea7b3146101f4575b600080fd5b610160600480360381019061015b9190611f41565b610456565b60405161016d9190611f89565b60405180910390f35b610190600480360381019061018b9190611ffc565b6104a0565b60405161019d9190611f89565b60405180910390f35b6101ae610501565b6040516101bb91906120b9565b60405180910390f35b6101de60048036038101906101d99190611f41565b610593565b6040516101eb919061211c565b60405180910390f35b61020e60048036038101906102099190612163565b6105af565b005b61022a600480360381019061022591906121a3565b6105c5565b005b610246600480360381019061024191906121a3565b6106c7565b005b610262600480360381019061025d919061232b565b6106e7565b005b61027e60048036038101906102799190611f41565b610787565b60405161028b919061211c565b60405180910390f35b6102ae60048036038101906102a99190612387565b610799565b6040516102bb91906123c3565b60405180910390f35b6102cc610853565b005b6102e860048036038101906102e39190612387565b610867565b005b6102f261094e565b6040516102ff919061211c565b60405180910390f35b610310610978565b60405161031d91906120b9565b60405180910390f35b610340600480360381019061033b919061240a565b610a0a565b005b61035c600480360381019061035791906124eb565b610a20565b005b61037860048036038101906103739190611f41565b610a45565b60405161038591906120b9565b60405180910390f35b6103a860048036038101906103a3919061232b565b610b58565b005b6103c460048036038101906103bf919061256e565b610c25565b6040516103d19190611f89565b60405180910390f35b6103f460048036038101906103ef9190612387565b610cb9565b60405161040191906123c3565b60405180910390f35b610424600480360381019061041f9190612387565b610d9f565b005b610440600480360381019061043b9190612387565b610e25565b60405161044d9190611f89565b60405180910390f35b6000610460610e42565b600073ffffffffffffffffffffffffffffffffffffffff1661048183610ec9565b73ffffffffffffffffffffffffffffffffffffffff1614159050919050565b6000634906490660e01b7bffffffffffffffffffffffffffffffffffffffffffffffffffffffff1916827bffffffffffffffffffffffffffffffffffffffffffffffffffffffff191614806104fa57506104f982610f06565b5b9050919050565b606060008054610510906125dd565b80601f016020809104026020016040519081016040528092919081815260200182805461053c906125dd565b80156105895780601f1061055e57610100808354040283529160200191610589565b820191906000526020600020905b81548152906001019060200180831161056c57829003601f168201915b5050505050905090565b600061059e82610fe8565b506105a882611070565b9050919050565b6105c182826105bc6110ad565b6110b5565b5050565b600073ffffffffffffffffffffffffffffffffffffffff168273ffffffffffffffffffffffffffffffffffffffff16036106375760006040517f64a0ae9200000000000000000000000000000000000000000000000000000000815260040161062e919061211c565b60405180910390fd5b600061064b83836106466110ad565b6110c7565b90508373ffffffffffffffffffffffffffffffffffffffff168173ffffffffffffffffffffffffffffffffffffffff16146106c1578382826040517f64283d7b0000000000000000000000000000000000000000000000000000000081526004016106b89392919061260e565b60405180910390fd5b50505050565b6106e283838360405180602001604052806000815250610a20565b505050565b6106ef610e42565b60006106fa83610799565b1161073a576040517f08c379a000000000000000000000000000000000000000000000000000000000815260040161073190612691565b60405180910390fd5b610783600960008473ffffffffffffffffffffffffffffffffffffffff1673ffffffffffffffffffffffffffffffffffffffff16815260200190815260200160002054826112e1565b5050565b600061079282610fe8565b9050919050565b60008073ffffffffffffffffffffffffffffffffffffffff168273ffffffffffffffffffffffffffffffffffffffff160361080c5760006040517f89c62b64000000000000000000000000000000000000000000000000000000008152600401610803919061211c565b60405180910390fd5b600360008373ffffffffffffffffffffffffffffffffffffffff1673ffffffffffffffffffffffffffffffffffffffff168152602001908152602001600020549050919050565b61085b610e42565b610865600061133d565b565b61086f610e42565b600061087a82610799565b116108ba576040517f08c379a00000000000000000000000000000000000000000000000000000000081526004016108b190612691565b60405180910390fd5b6000600960008373ffffffffffffffffffffffffffffffffffffffff1673ffffffffffffffffffffffffffffffffffffffff168152602001908152602001600020549050600960008373ffffffffffffffffffffffffffffffffffffffff1673ffffffffffffffffffffffffffffffffffffffff1681526020019081526020016000206000905561094a81611403565b5050565b6000600760009054906101000a900473ffffffffffffffffffffffffffffffffffffffff16905090565b606060018054610987906125dd565b80601f01602080910402602001604051908101604052809291908181526020018280546109b3906125dd565b8015610a005780601f106109d557610100808354040283529160200191610a00565b820191906000526020600020905b8154815290600101906020018083116109e357829003601f168201915b5050505050905090565b610a1c610a156110ad565b8383611489565b5050565b610a2b8484846105c5565b610a3f610a366110ad565b858585856115f8565b50505050565b6060610a5082610fe8565b506000600660008481526020019081526020016000208054610a71906125dd565b80601f0160208091040260200160405190810160405280929190818152602001828054610a9d906125dd565b8015610aea5780601f10610abf57610100808354040283529160200191610aea565b820191906000526020600020905b815481529060010190602001808311610acd57829003601f168201915b505050505090506000610afb6117a9565b90506000815103610b10578192505050610b53565b600082511115610b45578082604051602001610b2d9291906126ed565b60405160208183030381529060405292505050610b53565b610b4e846117c0565b925050505b919050565b610b60610e42565b6000610b6b83610799565b14610bab576040517f08c379a0000000000000000000000000000000000000000000000000000000008152600401610ba29061275d565b60405180910390fd5b610bb782600854611829565b610bc3600854826112e1565b600854600960008473ffffffffffffffffffffffffffffffffffffffff1673ffffffffffffffffffffffffffffffffffffffff1681526020019081526020016000208190555060086000815480929190610c1c906127ac565b91905055505050565b6000600560008473ffffffffffffffffffffffffffffffffffffffff1673ffffffffffffffffffffffffffffffffffffffff16815260200190815260200160002060008373ffffffffffffffffffffffffffffffffffffffff1673ffffffffffffffffffffffffffffffffffffffff16815260200190815260200160002060009054906101000a900460ff16905092915050565b6000610cc3610e42565b6000610cce83610799565b11610d0e576040517f08c379a0000000000000000000000000000000000000000000000000000000008152600401610d0590612691565b60405180910390fd5b6000600960008473ffffffffffffffffffffffffffffffffffffffff1673ffffffffffffffffffffffffffffffffffffffff1681526020019081526020016000205490506008548110610d96576040517f08c379a0000000000000000000000000000000000000000000000000000000008152600401610d8d90612840565b60405180910390fd5b80915050919050565b610da7610e42565b600073ffffffffffffffffffffffffffffffffffffffff168173ffffffffffffffffffffffffffffffffffffffff1603610e195760006040517f1e4fbdf7000000000000000000000000000000000000000000000000000000008152600401610e10919061211c565b60405180910390fd5b610e228161133d565b50565b6000610e2f610e42565b6000610e3a83610799565b119050919050565b610e4a6110ad565b73ffffffffffffffffffffffffffffffffffffffff16610e6861094e565b73ffffffffffffffffffffffffffffffffffffffff1614610ec757610e8b6110ad565b6040517f118cdaa7000000000000000000000000000000000000000000000000000000008152600401610ebe919061211c565b60405180910390fd5b565b60006002600083815260200190815260200160002060009054906101000a900473ffffffffffffffffffffffffffffffffffffffff169050919050565b60007f80ac58cd000000000000000000000000000000000000000000000000000000007bffffffffffffffffffffffffffffffffffffffffffffffffffffffff1916827bffffffffffffffffffffffffffffffffffffffffffffffffffffffff19161480610fd157507f5b5e139f000000000000000000000000000000000000000000000000000000007bffffffffffffffffffffffffffffffffffffffffffffffffffffffff1916827bffffffffffffffffffffffffffffffffffffffffffffffffffffffff1916145b80610fe15750610fe082611922565b5b9050919050565b600080610ff483610ec9565b9050600073ffffffffffffffffffffffffffffffffffffffff168173ffffffffffffffffffffffffffffffffffffffff160361106757826040517f7e27328900000000000000000000000000000000000000000000000000000000815260040161105e91906123c3565b60405180910390fd5b80915050919050565b60006004600083815260200190815260200160002060009054906101000a900473ffffffffffffffffffffffffffffffffffffffff169050919050565b600033905090565b6110c2838383600161198c565b505050565b6000806110d384610ec9565b9050600073ffffffffffffffffffffffffffffffffffffffff168373ffffffffffffffffffffffffffffffffffffffff161461111557611114818486611b51565b5b600073ffffffffffffffffffffffffffffffffffffffff168173ffffffffffffffffffffffffffffffffffffffff16146111a65761115760008560008061198c565b6001600360008373ffffffffffffffffffffffffffffffffffffffff1673ffffffffffffffffffffffffffffffffffffffff168152602001908152602001600020600082825403925050819055505b600073ffffffffffffffffffffffffffffffffffffffff168573ffffffffffffffffffffffffffffffffffffffff1614611229576001600360008773ffffffffffffffffffffffffffffffffffffffff1673ffffffffffffffffffffffffffffffffffffffff168152602001908152602001600020600082825401925050819055505b846002600086815260200190815260200160002060006101000a81548173ffffffffffffffffffffffffffffffffffffffff021916908373ffffffffffffffffffffffffffffffffffffffff160217905550838573ffffffffffffffffffffffffffffffffffffffff168273ffffffffffffffffffffffffffffffffffffffff167fddf252ad1be2c89b69c2b068fc378daa952ba7f163c4a11628f55a4df523b3ef60405160405180910390a4809150509392505050565b806006600084815260200190815260200160002090816113019190612a0c565b507ff8e1a15aba9398e019f0b49df1a4fde98ee17ae345cb5f6b5e2c27f5033e8ce78260405161133191906123c3565b60405180910390a15050565b6000600760009054906101000a900473ffffffffffffffffffffffffffffffffffffffff16905081600760006101000a81548173ffffffffffffffffffffffffffffffffffffffff021916908373ffffffffffffffffffffffffffffffffffffffff1602179055508173ffffffffffffffffffffffffffffffffffffffff168173ffffffffffffffffffffffffffffffffffffffff167f8be0079c531659141344cd1fd0a4f28419497f9722a3daafe3b4186f6b6457e060405160405180910390a35050565b600061141260008360006110c7565b9050600073ffffffffffffffffffffffffffffffffffffffff168173ffffffffffffffffffffffffffffffffffffffff160361148557816040517f7e27328900000000000000000000000000000000000000000000000000000000815260040161147c91906123c3565b60405180910390fd5b5050565b600073ffffffffffffffffffffffffffffffffffffffff168273ffffffffffffffffffffffffffffffffffffffff16036114fa57816040517f5b08ba180000000000000000000000000000000000000000000000000000000081526004016114f1919061211c565b60405180910390fd5b80600560008573ffffffffffffffffffffffffffffffffffffffff1673ffffffffffffffffffffffffffffffffffffffff16815260200190815260200160002060008473ffffffffffffffffffffffffffffffffffffffff1673ffffffffffffffffffffffffffffffffffffffff16815260200190815260200160002060006101000a81548160ff0219169083151502179055508173ffffffffffffffffffffffffffffffffffffffff168373ffffffffffffffffffffffffffffffffffffffff167f17307eab39ab6107e8899845ad3d59bd9653f200f220920489ca2b5937696c31836040516115eb9190611f89565b60405180910390a3505050565b60008373ffffffffffffffffffffffffffffffffffffffff163b11156117a2578273ffffffffffffffffffffffffffffffffffffffff1663150b7a02868685856040518563ffffffff1660e01b81526004016116579493929190612b33565b6020604051808303816000875af192505050801561169357506040513d601f19601f820116820180604052508101906116909190612b94565b60015b611717573d80600081146116c3576040519150601f19603f3d011682016040523d82523d6000602084013e6116c8565b606091505b50600081510361170f57836040517f64a0ae92000000000000000000000000000000000000000000000000000000008152600401611706919061211c565b60405180910390fd5b805181602001fd5b63150b7a0260e01b7bffffffffffffffffffffffffffffffffffffffffffffffffffffffff1916817bffffffffffffffffffffffffffffffffffffffffffffffffffffffff1916146117a057836040517f64a0ae92000000000000000000000000000000000000000000000000000000008152600401611797919061211c565b60405180910390fd5b505b5050505050565b606060405180602001604052806000815250905090565b60606117cb82610fe8565b5060006117d66117a9565b905060008151116117f65760405180602001604052806000815250611821565b8061180084611c15565b6040516020016118119291906126ed565b6040516020818303038152906040525b915050919050565b600073ffffffffffffffffffffffffffffffffffffffff168273ffffffffffffffffffffffffffffffffffffffff160361189b5760006040517f64a0ae92000000000000000000000000000000000000000000000000000000008152600401611892919061211c565b60405180910390fd5b60006118a9838360006110c7565b9050600073ffffffffffffffffffffffffffffffffffffffff168173ffffffffffffffffffffffffffffffffffffffff161461191d5760006040517f73c6ac6e000000000000000000000000000000000000000000000000000000008152600401611914919061211c565b60405180910390fd5b505050565b60007f01ffc9a7000000000000000000000000000000000000000000000000000000007bffffffffffffffffffffffffffffffffffffffffffffffffffffffff1916827bffffffffffffffffffffffffffffffffffffffffffffffffffffffff1916149050919050565b80806119c55750600073ffffffffffffffffffffffffffffffffffffffff168273ffffffffffffffffffffffffffffffffffffffff1614155b15611af95760006119d584610fe8565b9050600073ffffffffffffffffffffffffffffffffffffffff168373ffffffffffffffffffffffffffffffffffffffff1614158015611a4057508273ffffffffffffffffffffffffffffffffffffffff168173ffffffffffffffffffffffffffffffffffffffff1614155b8015611a535750611a518184610c25565b155b15611a9557826040517fa9fbf51f000000000000000000000000000000000000000000000000000000008152600401611a8c919061211c565b60405180910390fd5b8115611af757838573ffffffffffffffffffffffffffffffffffffffff168273ffffffffffffffffffffffffffffffffffffffff167f8c5be1e5ebec7d5bd14f71427d1e84f3dd0314c0f7b2291e5b200ac8c7c3b92560405160405180910390a45b505b836004600085815260200190815260200160002060006101000a81548173ffffffffffffffffffffffffffffffffffffffff021916908373ffffffffffffffffffffffffffffffffffffffff16021790555050505050565b611b5c838383611ce3565b611c1057600073ffffffffffffffffffffffffffffffffffffffff168373ffffffffffffffffffffffffffffffffffffffff1603611bd157806040517f7e273289000000000000000000000000000000000000000000000000000000008152600401611bc891906123c3565b60405180910390fd5b81816040517f177e802f000000000000000000000000000000000000000000000000000000008152600401611c07929190612bc1565b60405180910390fd5b505050565b606060006001611c2484611da4565b01905060008167ffffffffffffffff811115611c4357611c42612200565b5b6040519080825280601f01601f191660200182016040528015611c755781602001600182028036833780820191505090505b509050600082602001820190505b600115611cd8578080600190039150507f3031323334353637383961626364656600000000000000000000000000000000600a86061a8153600a8581611ccc57611ccb612bea565b5b04945060008503611c83575b819350505050919050565b60008073ffffffffffffffffffffffffffffffffffffffff168373ffffffffffffffffffffffffffffffffffffffff1614158015611d9b57508273ffffffffffffffffffffffffffffffffffffffff168473ffffffffffffffffffffffffffffffffffffffff161480611d5c5750611d5b8484610c25565b5b80611d9a57508273ffffffffffffffffffffffffffffffffffffffff16611d8283611070565b73ffffffffffffffffffffffffffffffffffffffff16145b5b90509392505050565b600080600090507a184f03e93ff9f4daa797ed6e38ed64bf6a1f0100000000000000008310611e02577a184f03e93ff9f4daa797ed6e38ed64bf6a1f0100000000000000008381611df857611df7612bea565b5b0492506040810190505b6d04ee2d6d415b85acef81000000008310611e3f576d04ee2d6d415b85acef81000000008381611e3557611e34612bea565b5b0492506020810190505b662386f26fc100008310611e6e57662386f26fc100008381611e6457611e63612bea565b5b0492506010810190505b6305f5e1008310611e97576305f5e1008381611e8d57611e8c612bea565b5b0492506008810190505b6127108310611ebc576127108381611eb257611eb1612bea565b5b0492506004810190505b60648310611edf5760648381611ed557611ed4612bea565b5b0492506002810190505b600a8310611eee576001810190505b80915050919050565b6000604051905090565b600080fd5b600080fd5b6000819050919050565b611f1e81611f0b565b8114611f2957600080fd5b50565b600081359050611f3b81611f15565b92915050565b600060208284031215611f5757611f56611f01565b5b6000611f6584828501611f2c565b91505092915050565b60008115159050919050565b611f8381611f6e565b82525050565b6000602082019050611f9e6000830184611f7a565b92915050565b60007fffffffff0000000000000000000000000000000000000000000000000000000082169050919050565b611fd981611fa4565b8114611fe457600080fd5b50565b600081359050611ff681611fd0565b92915050565b60006020828403121561201257612011611f01565b5b600061202084828501611fe7565b91505092915050565b600081519050919050565b600082825260208201905092915050565b60005b83811015612063578082015181840152602081019050612048565b60008484015250505050565b6000601f19601f8301169050919050565b600061208b82612029565b6120958185612034565b93506120a5818560208601612045565b6120ae8161206f565b840191505092915050565b600060208201905081810360008301526120d38184612080565b905092915050565b600073ffffffffffffffffffffffffffffffffffffffff82169050919050565b6000612106826120db565b9050919050565b612116816120fb565b82525050565b6000602082019050612131600083018461210d565b92915050565b612140816120fb565b811461214b57600080fd5b50565b60008135905061215d81612137565b92915050565b6000806040838503121561217a57612179611f01565b5b60006121888582860161214e565b925050602061219985828601611f2c565b9150509250929050565b6000806000606084860312156121bc576121bb611f01565b5b60006121ca8682870161214e565b93505060206121db8682870161214e565b92505060406121ec86828701611f2c565b9150509250925092565b600080fd5b600080fd5b7f4e487b7100000000000000000000000000000000000000000000000000000000600052604160045260246000fd5b6122388261206f565b810181811067ffffffffffffffff8211171561225757612256612200565b5b80604052505050565b600061226a611ef7565b9050612276828261222f565b919050565b600067ffffffffffffffff82111561229657612295612200565b5b61229f8261206f565b9050602081019050919050565b82818337600083830152505050565b60006122ce6122c98461227b565b612260565b9050828152602081018484840111156122ea576122e96121fb565b5b6122f58482856122ac565b509392505050565b600082601f830112612312576123116121f6565b5b81356123228482602086016122bb565b91505092915050565b6000806040838503121561234257612341611f01565b5b60006123508582860161214e565b925050602083013567ffffffffffffffff81111561237157612370611f06565b5b61237d858286016122fd565b9150509250929050565b60006020828403121561239d5761239c611f01565b5b60006123ab8482850161214e565b91505092915050565b6123bd81611f0b565b82525050565b60006020820190506123d860008301846123b4565b92915050565b6123e781611f6e565b81146123f257600080fd5b50565b600081359050612404816123de565b92915050565b6000806040838503121561242157612420611f01565b5b600061242f8582860161214e565b9250506020612440858286016123f5565b9150509250929050565b600067ffffffffffffffff82111561246557612464612200565b5b61246e8261206f565b9050602081019050919050565b600061248e6124898461244a565b612260565b9050828152602081018484840111156124aa576124a96121fb565b5b6124b58482856122ac565b509392505050565b600082601f8301126124d2576124d16121f6565b5b81356124e284826020860161247b565b91505092915050565b6000806000806080858703121561250557612504611f01565b5b60006125138782880161214e565b94505060206125248782880161214e565b935050604061253587828801611f2c565b925050606085013567ffffffffffffffff81111561255657612555611f06565b5b612562878288016124bd565b91505092959194509250565b6000806040838503121561258557612584611f01565b5b60006125938582860161214e565b92505060206125a48582860161214e565b9150509250929050565b7f4e487b7100000000000000000000000000000000000000000000000000000000600052602260045260246000fd5b600060028204905060018216806125f557607f821691505b602082108103612608576126076125ae565b5b50919050565b6000606082019050612623600083018661210d565b61263060208301856123b4565b61263d604083018461210d565b949350505050565b7f5573657220646f65736e2774206861766520612050726f66696c65204e465400600082015250565b600061267b601f83612034565b915061268682612645565b602082019050919050565b600060208201905081810360008301526126aa8161266e565b9050919050565b600081905092915050565b60006126c782612029565b6126d181856126b1565b93506126e1818560208601612045565b80840191505092915050565b60006126f982856126bc565b915061270582846126bc565b91508190509392505050565b7f5573657220616c72656164792068617320612050726f66696c65204e46540000600082015250565b6000612747601e83612034565b915061275282612711565b602082019050919050565b600060208201905081810360008301526127768161273a565b9050919050565b7f4e487b7100000000000000000000000000000000000000000000000000000000600052601160045260246000fd5b60006127b782611f0b565b91507fffffffffffffffffffffffffffffffffffffffffffffffffffffffffffffffff82036127e9576127e861277d565b5b600182019050919050565b7f496e76616c696420746f6b656e20494400000000000000000000000000000000600082015250565b600061282a601083612034565b9150612835826127f4565b602082019050919050565b600060208201905081810360008301526128598161281d565b9050919050565b60008190508160005260206000209050919050565b60006020601f8301049050919050565b600082821b905092915050565b6000600883026128c27fffffffffffffffffffffffffffffffffffffffffffffffffffffffffffffffff82612885565b6128cc8683612885565b95508019841693508086168417925050509392505050565b6000819050919050565b60006129096129046128ff84611f0b565b6128e4565b611f0b565b9050919050565b6000819050919050565b612923836128ee565b61293761292f82612910565b848454612892565b825550505050565b600090565b61294c61293f565b61295781848461291a565b505050565b5b8181101561297b57612970600082612944565b60018101905061295d565b5050565b601f8211156129c05761299181612860565b61299a84612875565b810160208510156129a9578190505b6129bd6129b585612875565b83018261295c565b50505b505050565b600082821c905092915050565b60006129e3600019846008026129c5565b1980831691505092915050565b60006129fc83836129d2565b9150826002028217905092915050565b612a1582612029565b67ffffffffffffffff811115612a2e57612a2d612200565b5b612a3882546125dd565b612a4382828561297f565b600060209050601f831160018114612a765760008415612a64578287015190505b612a6e85826129f0565b865550612ad6565b601f198416612a8486612860565b60005b82811015612aac57848901518255600182019150602085019450602081019050612a87565b86831015612ac95784890151612ac5601f8916826129d2565b8355505b6001600288020188555050505b505050505050565b600081519050919050565b600082825260208201905092915050565b6000612b0582612ade565b612b0f8185612ae9565b9350612b1f818560208601612045565b612b288161206f565b840191505092915050565b6000608082019050612b48600083018761210d565b612b55602083018661210d565b612b6260408301856123b4565b8181036060830152612b748184612afa565b905095945050505050565b600081519050612b8e81611fd0565b92915050565b600060208284031215612baa57612ba9611f01565b5b6000612bb884828501612b7f565b91505092915050565b6000604082019050612bd6600083018561210d565b612be360208301846123b4565b9392505050565b7f4e487b7100000000000000000000000000000000000000000000000000000000600052601260045260246000fdfea26469706673582212208eb4626ce0eb9e0caa1ae62a471b617751ce400de669f53e790a5d4e7d7da7b464736f6c63430008140033",
  "linkReferences": {},
  "deployedLinkReferences": {}
}