{
  "_format": "hh-sol-artifact-1",
  "contractName": "MakeNFT",
  "sourceName": "contracts/MakeNFT.sol",
  "abi": [
    {
      "inputs": [],
      "stateMutability": "nonpayable",
      "type": "constructor"
    },
    {
      "inputs": [
        {
          "internalType": "address",
          "name": "sender",
          "type": "address"
        },
        {
          "internalType": "uint256",
          "name": "tokenId",
          "type": "uint256"
        },
        {
          "internalType": "address",
          "name": "owner",
          "type": "address"
        }
      ],
      "name": "ERC721IncorrectOwner",
      "type": "error"
    },
    {
      "inputs": [
        {
          "internalType": "address",
          "name": "operator",
          "type": "address"
        },
        {
          "internalType": "uint256",
          "name": "tokenId",
          "type": "uint256"
        }
      ],
      "name": "ERC721InsufficientApproval",
      "type": "error"
    },
    {
      "inputs": [
        {
          "internalType": "address",
          "name": "approver",
          "type": "address"
        }
      ],
      "name": "ERC721InvalidApprover",
      "type": "error"
    },
    {
      "inputs": [
        {
          "internalType": "address",
          "name": "operator",
          "type": "address"
        }
      ],
      "name": "ERC721InvalidOperator",
      "type": "error"
    },
    {
      "inputs": [
        {
          "internalType": "address",
          "name": "owner",
          "type": "address"
        }
      ],
      "name": "ERC721InvalidOwner",
      "type": "error"
    },
    {
      "inputs": [
        {
          "internalType": "address",
          "name": "receiver",
          "type": "address"
        }
      ],
      "name": "ERC721InvalidReceiver",
      "type": "error"
    },
    {
      "inputs": [
        {
          "internalType": "address",
          "name": "sender",
          "type": "address"
        }
      ],
      "name": "ERC721InvalidSender",
      "type": "error"
    },
    {
      "inputs": [
        {
          "internalType": "uint256",
          "name": "tokenId",
          "type": "uint256"
        }
      ],
      "name": "ERC721NonexistentToken",
      "type": "error"
    },
    {
      "inputs": [
        {
          "internalType": "address",
          "name": "owner",
          "type": "address"
        }
      ],
      "name": "OwnableInvalidOwner",
      "type": "error"
    },
    {
      "inputs": [
        {
          "internalType": "address",
          "name": "account",
          "type": "address"
        }
      ],
      "name": "OwnableUnauthorizedAccount",
      "type": "error"
    },
    {
      "anonymous": false,
      "inputs": [
        {
          "indexed": true,
          "internalType": "address",
          "name": "owner",
          "type": "address"
        },
        {
          "indexed": true,
          "internalType": "address",
          "name": "approved",
          "type": "address"
        },
        {
          "indexed": true,
          "internalType": "uint256",
          "name": "tokenId",
          "type": "uint256"
        }
      ],
      "name": "Approval",
      "type": "event"
    },
    {
      "anonymous": false,
      "inputs": [
        {
          "indexed": true,
          "internalType": "address",
          "name": "owner",
          "type": "address"
        },
        {
          "indexed": true,
          "internalType": "address",
          "name": "operator",
          "type": "address"
        },
        {
          "indexed": false,
          "internalType": "bool",
          "name": "approved",
          "type": "bool"
        }
      ],
      "name": "ApprovalForAll",
      "type": "event"
    },
    {
      "anonymous": false,
      "inputs": [
        {
          "indexed": false,
          "internalType": "uint256",
          "name": "_fromTokenId",
          "type": "uint256"
        },
        {
          "indexed": false,
          "internalType": "uint256",
          "name": "_toTokenId",
          "type": "uint256"
        }
      ],
      "name": "BatchMetadataUpdate",
      "type": "event"
    },
    {
      "anonymous": false,
      "inputs": [
        {
          "indexed": false,
          "internalType": "uint256",
          "name": "_tokenId",
          "type": "uint256"
        }
      ],
      "name": "MetadataUpdate",
      "type": "event"
    },
    {
      "anonymous": false,
      "inputs": [
        {
          "indexed": true,
          "internalType": "address",
          "name": "previousOwner",
          "type": "address"
        },
        {
          "indexed": true,
          "internalType": "address",
          "name": "newOwner",
          "type": "address"
        }
      ],
      "name": "OwnershipTransferred",
      "type": "event"
    },
    {
      "anonymous": false,
      "inputs": [
        {
          "indexed": true,
          "internalType": "address",
          "name": "from",
          "type": "address"
        },
        {
          "indexed": true,
          "internalType": "address",
          "name": "to",
          "type": "address"
        },
        {
          "indexed": true,
          "internalType": "uint256",
          "name": "tokenId",
          "type": "uint256"
        }
      ],
      "name": "Transfer",
      "type": "event"
    },
    {
      "inputs": [
        {
          "internalType": "address",
          "name": "to",
          "type": "address"
        },
        {
          "internalType": "uint256",
          "name": "tokenId",
          "type": "uint256"
        }
      ],
      "name": "approve",
      "outputs": [],
      "stateMutability": "nonpayable",
      "type": "function"
    },
    {
      "inputs": [
        {
          "internalType": "address",
          "name": "owner",
          "type": "address"
        }
      ],
      "name": "balanceOf",
      "outputs": [
        {
          "internalType": "uint256",
          "name": "",
          "type": "uint256"
        }
      ],
      "stateMutability": "view",
      "type": "function"
    },
    {
      "inputs": [],
      "name": "deleteNFT",
      "outputs": [],
      "stateMutability": "nonpayable",
      "type": "function"
    },
    {
      "inputs": [
        {
          "internalType": "uint256",
          "name": "tokenId",
          "type": "uint256"
        }
      ],
      "name": "getApproved",
      "outputs": [
        {
          "internalType": "address",
          "name": "",
          "type": "address"
        }
      ],
      "stateMutability": "view",
      "type": "function"
    },
    {
      "inputs": [],
      "name": "getTokenId",
      "outputs": [
        {
          "internalType": "uint256",
          "name": "",
          "type": "uint256"
        }
      ],
      "stateMutability": "view",
      "type": "function"
    },
    {
      "inputs": [
        {
          "internalType": "address",
          "name": "owner",
          "type": "address"
        },
        {
          "internalType": "address",
          "name": "operator",
          "type": "address"
        }
      ],
      "name": "isApprovedForAll",
      "outputs": [
        {
          "internalType": "bool",
          "name": "",
          "type": "bool"
        }
      ],
      "stateMutability": "view",
      "type": "function"
    },
    {
      "inputs": [],
      "name": "isMinted",
      "outputs": [
        {
          "internalType": "bool",
          "name": "",
          "type": "bool"
        }
      ],
      "stateMutability": "view",
      "type": "function"
    },
    {
      "inputs": [
        {
          "internalType": "string",
          "name": "uri",
          "type": "string"
        }
      ],
      "name": "mint",
      "outputs": [],
      "stateMutability": "nonpayable",
      "type": "function"
    },
    {
      "inputs": [],
      "name": "name",
      "outputs": [
        {
          "internalType": "string",
          "name": "",
          "type": "string"
        }
      ],
      "stateMutability": "view",
      "type": "function"
    },
    {
      "inputs": [],
      "name": "owner",
      "outputs": [
        {
          "internalType": "address",
          "name": "",
          "type": "address"
        }
      ],
      "stateMutability": "view",
      "type": "function"
    },
    {
      "inputs": [
        {
          "internalType": "uint256",
          "name": "tokenId",
          "type": "uint256"
        }
      ],
      "name": "ownerOf",
      "outputs": [
        {
          "internalType": "address",
          "name": "",
          "type": "address"
        }
      ],
      "stateMutability": "view",
      "type": "function"
    },
    {
      "inputs": [],
      "name": "renounceOwnership",
      "outputs": [],
      "stateMutability": "nonpayable",
      "type": "function"
    },
    {
      "inputs": [
        {
          "internalType": "address",
          "name": "from",
          "type": "address"
        },
        {
          "internalType": "address",
          "name": "to",
          "type": "address"
        },
        {
          "internalType": "uint256",
          "name": "tokenId",
          "type": "uint256"
        }
      ],
      "name": "safeTransferFrom",
      "outputs": [],
      "stateMutability": "nonpayable",
      "type": "function"
    },
    {
      "inputs": [
        {
          "internalType": "address",
          "name": "from",
          "type": "address"
        },
        {
          "internalType": "address",
          "name": "to",
          "type": "address"
        },
        {
          "internalType": "uint256",
          "name": "tokenId",
          "type": "uint256"
        },
        {
          "internalType": "bytes",
          "name": "data",
          "type": "bytes"
        }
      ],
      "name": "safeTransferFrom",
      "outputs": [],
      "stateMutability": "nonpayable",
      "type": "function"
    },
    {
      "inputs": [
        {
          "internalType": "address",
          "name": "operator",
          "type": "address"
        },
        {
          "internalType": "bool",
          "name": "approved",
          "type": "bool"
        }
      ],
      "name": "setApprovalForAll",
      "outputs": [],
      "stateMutability": "nonpayable",
      "type": "function"
    },
    {
      "inputs": [
        {
          "internalType": "string",
          "name": "uri",
          "type": "string"
        }
      ],
      "name": "setNFT",
      "outputs": [],
      "stateMutability": "nonpayable",
      "type": "function"
    },
    {
      "inputs": [
        {
          "internalType": "bytes4",
          "name": "interfaceId",
          "type": "bytes4"
        }
      ],
      "name": "supportsInterface",
      "outputs": [
        {
          "internalType": "bool",
          "name": "",
          "type": "bool"
        }
      ],
      "stateMutability": "view",
      "type": "function"
    },
    {
      "inputs": [],
      "name": "symbol",
      "outputs": [
        {
          "internalType": "string",
          "name": "",
          "type": "string"
        }
      ],
      "stateMutability": "view",
      "type": "function"
    },
    {
      "inputs": [
        {
          "internalType": "uint256",
          "name": "_tokenId",
          "type": "uint256"
        }
      ],
      "name": "tokenExists",
      "outputs": [
        {
          "internalType": "bool",
          "name": "",
          "type": "bool"
        }
      ],
      "stateMutability": "view",
      "type": "function"
    },
    {
      "inputs": [
        {
          "internalType": "uint256",
          "name": "tokenId",
          "type": "uint256"
        }
      ],
      "name": "tokenURI",
      "outputs": [
        {
          "internalType": "string",
          "name": "",
          "type": "string"
        }
      ],
      "stateMutability": "view",
      "type": "function"
    },
    {
      "inputs": [
        {
          "internalType": "address",
          "name": "from",
          "type": "address"
        },
        {
          "internalType": "address",
          "name": "to",
          "type": "address"
        },
        {
          "internalType": "uint256",
          "name": "tokenId",
          "type": "uint256"
        }
      ],
      "name": "transferFrom",
      "outputs": [],
      "stateMutability": "nonpayable",
      "type": "function"
    },
    {
      "inputs": [
        {
          "internalType": "address",
          "name": "newOwner",
          "type": "address"
        }
      ],
      "name": "transferOwnership",
      "outputs": [],
      "stateMutability": "nonpayable",
      "type": "function"
    }
  ],
  "bytecode": "0x608060405260006008553480156200001657600080fd5b50336040518060400160405280600781526020017f50726f66696c65000000000000000000000000000000000000000000000000008152506040518060400160405280600481526020017f5052464c00000000000000000000000000000000000000000000000000000000815250816000908162000095919062000477565b508060019081620000a7919062000477565b505050600073ffffffffffffffffffffffffffffffffffffffff168173ffffffffffffffffffffffffffffffffffffffff16036200011f5760006040517f1e4fbdf7000000000000000000000000000000000000000000000000000000008152600401620001169190620005a3565b60405180910390fd5b62000130816200013760201b60201c565b50620005c0565b6000600760009054906101000a900473ffffffffffffffffffffffffffffffffffffffff16905081600760006101000a81548173ffffffffffffffffffffffffffffffffffffffff021916908373ffffffffffffffffffffffffffffffffffffffff1602179055508173ffffffffffffffffffffffffffffffffffffffff168173ffffffffffffffffffffffffffffffffffffffff167f8be0079c531659141344cd1fd0a4f28419497f9722a3daafe3b4186f6b6457e060405160405180910390a35050565b600081519050919050565b7f4e487b7100000000000000000000000000000000000000000000000000000000600052604160045260246000fd5b7f4e487b7100000000000000000000000000000000000000000000000000000000600052602260045260246000fd5b600060028204905060018216806200027f57607f821691505b60208210810362000295576200029462000237565b5b50919050565b60008190508160005260206000209050919050565b60006020601f8301049050919050565b600082821b905092915050565b600060088302620002ff7fffffffffffffffffffffffffffffffffffffffffffffffffffffffffffffffff82620002c0565b6200030b8683620002c0565b95508019841693508086168417925050509392505050565b6000819050919050565b6000819050919050565b600062000358620003526200034c8462000323565b6200032d565b62000323565b9050919050565b6000819050919050565b620003748362000337565b6200038c62000383826200035f565b848454620002cd565b825550505050565b600090565b620003a362000394565b620003b081848462000369565b505050565b5b81811015620003d857620003cc60008262000399565b600181019050620003b6565b5050565b601f8211156200042757620003f1816200029b565b620003fc84620002b0565b810160208510156200040c578190505b620004246200041b85620002b0565b830182620003b5565b50505b505050565b600082821c905092915050565b60006200044c600019846008026200042c565b1980831691505092915050565b600062000467838362000439565b9150826002028217905092915050565b6200048282620001fd565b67ffffffffffffffff8111156200049e576200049d62000208565b5b620004aa825462000266565b620004b7828285620003dc565b600060209050601f831160018114620004ef5760008415620004da578287015190505b620004e6858262000459565b86555062000556565b601f198416620004ff866200029b565b60005b82811015620005295784890151825560018201915060208501945060208101905062000502565b8683101562000549578489015162000545601f89168262000439565b8355505b6001600288020188555050505b505050505050565b600073ffffffffffffffffffffffffffffffffffffffff82169050919050565b60006200058b826200055e565b9050919050565b6200059d816200057e565b82525050565b6000602082019050620005ba600083018462000592565b92915050565b612bcc80620005d06000396000f3fe608060405234801561001057600080fd5b50600436106101415760003560e01c806370a08231116100b8578063b88d4fde1161007c578063b88d4fde14610362578063c87b56dd1461037e578063d85d3d27146103ae578063e02b87bb146103ca578063e985e9c5146103d4578063f2fde38b1461040457610141565b806370a08231146102d0578063715018a6146103005780638da5cb5b1461030a57806395d89b4114610328578063a22cb4651461034657610141565b8063095ea7b31161010a578063095ea7b31461021257806323b872dd1461022e57806336ae50401461024a57806342842e0e146102685780636352211e146102845780636d13c4d7146102b457610141565b8062923f9e14610146578063010a38f51461017657806301ffc9a71461019457806306fdde03146101c4578063081812fc146101e2575b600080fd5b610160600480360381019061015b9190611ed1565b610420565b60405161016d9190611f19565b60405180910390f35b61017e610461565b60405161018b9190611f43565b60405180910390f35b6101ae60048036038101906101a99190611fb6565b61053c565b6040516101bb9190611f19565b60405180910390f35b6101cc61059d565b6040516101d99190612073565b60405180910390f35b6101fc60048036038101906101f79190611ed1565b61062f565b60405161020991906120d6565b60405180910390f35b61022c6004803603810190610227919061211d565b61064b565b005b6102486004803603810190610243919061215d565b610661565b005b610252610763565b60405161025f9190611f19565b60405180910390f35b610282600480360381019061027d919061215d565b610775565b005b61029e60048036038101906102999190611ed1565b610795565b6040516102ab91906120d6565b60405180910390f35b6102ce60048036038101906102c991906122e5565b6107a7565b005b6102ea60048036038101906102e5919061232e565b61083e565b6040516102f79190611f43565b60405180910390f35b6103086108f8565b005b61031261090c565b60405161031f91906120d6565b60405180910390f35b610330610936565b60405161033d9190612073565b60405180910390f35b610360600480360381019061035b9190612387565b6109c8565b005b61037c60048036038101906103779190612468565b6109de565b005b61039860048036038101906103939190611ed1565b610a03565b6040516103a59190612073565b60405180910390f35b6103c860048036038101906103c391906122e5565b610b16565b005b6103d2610bda565b005b6103ee60048036038101906103e991906124eb565b610cb8565b6040516103fb9190611f19565b60405180910390f35b61041e6004803603810190610419919061232e565b610d4c565b005b60008073ffffffffffffffffffffffffffffffffffffffff1661044283610dd2565b73ffffffffffffffffffffffffffffffffffffffff1614159050919050565b60008061046d3361083e565b116104ad576040517f08c379a00000000000000000000000000000000000000000000000000000000081526004016104a490612577565b60405180910390fd5b6000600960003373ffffffffffffffffffffffffffffffffffffffff1673ffffffffffffffffffffffffffffffffffffffff1681526020019081526020016000205490506008548110610535576040517f08c379a000000000000000000000000000000000000000000000000000000000815260040161052c906125e3565b60405180910390fd5b8091505090565b6000634906490660e01b7bffffffffffffffffffffffffffffffffffffffffffffffffffffffff1916827bffffffffffffffffffffffffffffffffffffffffffffffffffffffff19161480610596575061059582610e0f565b5b9050919050565b6060600080546105ac90612632565b80601f01602080910402602001604051908101604052809291908181526020018280546105d890612632565b80156106255780601f106105fa57610100808354040283529160200191610625565b820191906000526020600020905b81548152906001019060200180831161060857829003601f168201915b5050505050905090565b600061063a82610ef1565b5061064482610f79565b9050919050565b61065d8282610658610fb6565b610fbe565b5050565b600073ffffffffffffffffffffffffffffffffffffffff168273ffffffffffffffffffffffffffffffffffffffff16036106d35760006040517f64a0ae920000000000000000000000000000000000000000000000000000000081526004016106ca91906120d6565b60405180910390fd5b60006106e783836106e2610fb6565b610fd0565b90508373ffffffffffffffffffffffffffffffffffffffff168173ffffffffffffffffffffffffffffffffffffffff161461075d578382826040517f64283d7b00000000000000000000000000000000000000000000000000000000815260040161075493929190612663565b60405180910390fd5b50505050565b60008061076f3361083e565b11905090565b610790838383604051806020016040528060008152506109de565b505050565b60006107a082610ef1565b9050919050565b60006107b23361083e565b116107f2576040517f08c379a00000000000000000000000000000000000000000000000000000000081526004016107e990612577565b60405180910390fd5b61083b600960003373ffffffffffffffffffffffffffffffffffffffff1673ffffffffffffffffffffffffffffffffffffffff16815260200190815260200160002054826111ea565b50565b60008073ffffffffffffffffffffffffffffffffffffffff168273ffffffffffffffffffffffffffffffffffffffff16036108b15760006040517f89c62b640000000000000000000000000000000000000000000000000000000081526004016108a891906120d6565b60405180910390fd5b600360008373ffffffffffffffffffffffffffffffffffffffff1673ffffffffffffffffffffffffffffffffffffffff168152602001908152602001600020549050919050565b610900611246565b61090a60006112cd565b565b6000600760009054906101000a900473ffffffffffffffffffffffffffffffffffffffff16905090565b60606001805461094590612632565b80601f016020809104026020016040519081016040528092919081815260200182805461097190612632565b80156109be5780601f10610993576101008083540402835291602001916109be565b820191906000526020600020905b8154815290600101906020018083116109a157829003601f168201915b5050505050905090565b6109da6109d3610fb6565b8383611393565b5050565b6109e9848484610661565b6109fd6109f4610fb6565b85858585611502565b50505050565b6060610a0e82610ef1565b506000600660008481526020019081526020016000208054610a2f90612632565b80601f0160208091040260200160405190810160405280929190818152602001828054610a5b90612632565b8015610aa85780601f10610a7d57610100808354040283529160200191610aa8565b820191906000526020600020905b815481529060010190602001808311610a8b57829003601f168201915b505050505090506000610ab96116b3565b90506000815103610ace578192505050610b11565b600082511115610b03578082604051602001610aeb9291906126d6565b60405160208183030381529060405292505050610b11565b610b0c846116ca565b925050505b919050565b6000610b213361083e565b14610b61576040517f08c379a0000000000000000000000000000000000000000000000000000000008152600401610b5890612746565b60405180910390fd5b610b6d33600854611733565b610b79600854826111ea565b600854600960003373ffffffffffffffffffffffffffffffffffffffff1673ffffffffffffffffffffffffffffffffffffffff1681526020019081526020016000208190555060086000815480929190610bd290612795565b919050555050565b6000610be53361083e565b11610c25576040517f08c379a0000000000000000000000000000000000000000000000000000000008152600401610c1c90612577565b60405180910390fd5b6000600960003373ffffffffffffffffffffffffffffffffffffffff1673ffffffffffffffffffffffffffffffffffffffff168152602001908152602001600020549050600960003373ffffffffffffffffffffffffffffffffffffffff1673ffffffffffffffffffffffffffffffffffffffff16815260200190815260200160002060009055610cb58161182c565b50565b6000600560008473ffffffffffffffffffffffffffffffffffffffff1673ffffffffffffffffffffffffffffffffffffffff16815260200190815260200160002060008373ffffffffffffffffffffffffffffffffffffffff1673ffffffffffffffffffffffffffffffffffffffff16815260200190815260200160002060009054906101000a900460ff16905092915050565b610d54611246565b600073ffffffffffffffffffffffffffffffffffffffff168173ffffffffffffffffffffffffffffffffffffffff1603610dc65760006040517f1e4fbdf7000000000000000000000000000000000000000000000000000000008152600401610dbd91906120d6565b60405180910390fd5b610dcf816112cd565b50565b60006002600083815260200190815260200160002060009054906101000a900473ffffffffffffffffffffffffffffffffffffffff169050919050565b60007f80ac58cd000000000000000000000000000000000000000000000000000000007bffffffffffffffffffffffffffffffffffffffffffffffffffffffff1916827bffffffffffffffffffffffffffffffffffffffffffffffffffffffff19161480610eda57507f5b5e139f000000000000000000000000000000000000000000000000000000007bffffffffffffffffffffffffffffffffffffffffffffffffffffffff1916827bffffffffffffffffffffffffffffffffffffffffffffffffffffffff1916145b80610eea5750610ee9826118b2565b5b9050919050565b600080610efd83610dd2565b9050600073ffffffffffffffffffffffffffffffffffffffff168173ffffffffffffffffffffffffffffffffffffffff1603610f7057826040517f7e273289000000000000000000000000000000000000000000000000000000008152600401610f679190611f43565b60405180910390fd5b80915050919050565b60006004600083815260200190815260200160002060009054906101000a900473ffffffffffffffffffffffffffffffffffffffff169050919050565b600033905090565b610fcb838383600161191c565b505050565b600080610fdc84610dd2565b9050600073ffffffffffffffffffffffffffffffffffffffff168373ffffffffffffffffffffffffffffffffffffffff161461101e5761101d818486611ae1565b5b600073ffffffffffffffffffffffffffffffffffffffff168173ffffffffffffffffffffffffffffffffffffffff16146110af5761106060008560008061191c565b6001600360008373ffffffffffffffffffffffffffffffffffffffff1673ffffffffffffffffffffffffffffffffffffffff168152602001908152602001600020600082825403925050819055505b600073ffffffffffffffffffffffffffffffffffffffff168573ffffffffffffffffffffffffffffffffffffffff1614611132576001600360008773ffffffffffffffffffffffffffffffffffffffff1673ffffffffffffffffffffffffffffffffffffffff168152602001908152602001600020600082825401925050819055505b846002600086815260200190815260200160002060006101000a81548173ffffffffffffffffffffffffffffffffffffffff021916908373ffffffffffffffffffffffffffffffffffffffff160217905550838573ffffffffffffffffffffffffffffffffffffffff168273ffffffffffffffffffffffffffffffffffffffff167fddf252ad1be2c89b69c2b068fc378daa952ba7f163c4a11628f55a4df523b3ef60405160405180910390a4809150509392505050565b8060066000848152602001908152602001600020908161120a9190612989565b507ff8e1a15aba9398e019f0b49df1a4fde98ee17ae345cb5f6b5e2c27f5033e8ce78260405161123a9190611f43565b60405180910390a15050565b61124e610fb6565b73ffffffffffffffffffffffffffffffffffffffff1661126c61090c565b73ffffffffffffffffffffffffffffffffffffffff16146112cb5761128f610fb6565b6040517f118cdaa70000000000000000000000000000000000000000000000000000000081526004016112c291906120d6565b60405180910390fd5b565b6000600760009054906101000a900473ffffffffffffffffffffffffffffffffffffffff16905081600760006101000a81548173ffffffffffffffffffffffffffffffffffffffff021916908373ffffffffffffffffffffffffffffffffffffffff1602179055508173ffffffffffffffffffffffffffffffffffffffff168173ffffffffffffffffffffffffffffffffffffffff167f8be0079c531659141344cd1fd0a4f28419497f9722a3daafe3b4186f6b6457e060405160405180910390a35050565b600073ffffffffffffffffffffffffffffffffffffffff168273ffffffffffffffffffffffffffffffffffffffff160361140457816040517f5b08ba180000000000000000000000000000000000000000000000000000000081526004016113fb91906120d6565b60405180910390fd5b80600560008573ffffffffffffffffffffffffffffffffffffffff1673ffffffffffffffffffffffffffffffffffffffff16815260200190815260200160002060008473ffffffffffffffffffffffffffffffffffffffff1673ffffffffffffffffffffffffffffffffffffffff16815260200190815260200160002060006101000a81548160ff0219169083151502179055508173ffffffffffffffffffffffffffffffffffffffff168373ffffffffffffffffffffffffffffffffffffffff167f17307eab39ab6107e8899845ad3d59bd9653f200f220920489ca2b5937696c31836040516114f59190611f19565b60405180910390a3505050565b60008373ffffffffffffffffffffffffffffffffffffffff163b11156116ac578273ffffffffffffffffffffffffffffffffffffffff1663150b7a02868685856040518563ffffffff1660e01b81526004016115619493929190612ab0565b6020604051808303816000875af192505050801561159d57506040513d601f19601f8201168201806040525081019061159a9190612b11565b60015b611621573d80600081146115cd576040519150601f19603f3d011682016040523d82523d6000602084013e6115d2565b606091505b50600081510361161957836040517f64a0ae9200000000000000000000000000000000000000000000000000000000815260040161161091906120d6565b60405180910390fd5b805181602001fd5b63150b7a0260e01b7bffffffffffffffffffffffffffffffffffffffffffffffffffffffff1916817bffffffffffffffffffffffffffffffffffffffffffffffffffffffff1916146116aa57836040517f64a0ae920000000000000000000000000000000000000000000000000000000081526004016116a191906120d6565b60405180910390fd5b505b5050505050565b606060405180602001604052806000815250905090565b60606116d582610ef1565b5060006116e06116b3565b90506000815111611700576040518060200160405280600081525061172b565b8061170a84611ba5565b60405160200161171b9291906126d6565b6040516020818303038152906040525b915050919050565b600073ffffffffffffffffffffffffffffffffffffffff168273ffffffffffffffffffffffffffffffffffffffff16036117a55760006040517f64a0ae9200000000000000000000000000000000000000000000000000000000815260040161179c91906120d6565b60405180910390fd5b60006117b383836000610fd0565b9050600073ffffffffffffffffffffffffffffffffffffffff168173ffffffffffffffffffffffffffffffffffffffff16146118275760006040517f73c6ac6e00000000000000000000000000000000000000000000000000000000815260040161181e91906120d6565b60405180910390fd5b505050565b600061183b6000836000610fd0565b9050600073ffffffffffffffffffffffffffffffffffffffff168173ffffffffffffffffffffffffffffffffffffffff16036118ae57816040517f7e2732890000000000000000000000000000000000000000000000000000000081526004016118a59190611f43565b60405180910390fd5b5050565b60007f01ffc9a7000000000000000000000000000000000000000000000000000000007bffffffffffffffffffffffffffffffffffffffffffffffffffffffff1916827bffffffffffffffffffffffffffffffffffffffffffffffffffffffff1916149050919050565b80806119555750600073ffffffffffffffffffffffffffffffffffffffff168273ffffffffffffffffffffffffffffffffffffffff1614155b15611a8957600061196584610ef1565b9050600073ffffffffffffffffffffffffffffffffffffffff168373ffffffffffffffffffffffffffffffffffffffff16141580156119d057508273ffffffffffffffffffffffffffffffffffffffff168173ffffffffffffffffffffffffffffffffffffffff1614155b80156119e357506119e18184610cb8565b155b15611a2557826040517fa9fbf51f000000000000000000000000000000000000000000000000000000008152600401611a1c91906120d6565b60405180910390fd5b8115611a8757838573ffffffffffffffffffffffffffffffffffffffff168273ffffffffffffffffffffffffffffffffffffffff167f8c5be1e5ebec7d5bd14f71427d1e84f3dd0314c0f7b2291e5b200ac8c7c3b92560405160405180910390a45b505b836004600085815260200190815260200160002060006101000a81548173ffffffffffffffffffffffffffffffffffffffff021916908373ffffffffffffffffffffffffffffffffffffffff16021790555050505050565b611aec838383611c73565b611ba057600073ffffffffffffffffffffffffffffffffffffffff168373ffffffffffffffffffffffffffffffffffffffff1603611b6157806040517f7e273289000000000000000000000000000000000000000000000000000000008152600401611b589190611f43565b60405180910390fd5b81816040517f177e802f000000000000000000000000000000000000000000000000000000008152600401611b97929190612b3e565b60405180910390fd5b505050565b606060006001611bb484611d34565b01905060008167ffffffffffffffff811115611bd357611bd26121ba565b5b6040519080825280601f01601f191660200182016040528015611c055781602001600182028036833780820191505090505b509050600082602001820190505b600115611c68578080600190039150507f3031323334353637383961626364656600000000000000000000000000000000600a86061a8153600a8581611c5c57611c5b612b67565b5b04945060008503611c13575b819350505050919050565b60008073ffffffffffffffffffffffffffffffffffffffff168373ffffffffffffffffffffffffffffffffffffffff1614158015611d2b57508273ffffffffffffffffffffffffffffffffffffffff168473ffffffffffffffffffffffffffffffffffffffff161480611cec5750611ceb8484610cb8565b5b80611d2a57508273ffffffffffffffffffffffffffffffffffffffff16611d1283610f79565b73ffffffffffffffffffffffffffffffffffffffff16145b5b90509392505050565b600080600090507a184f03e93ff9f4daa797ed6e38ed64bf6a1f0100000000000000008310611d92577a184f03e93ff9f4daa797ed6e38ed64bf6a1f0100000000000000008381611d8857611d87612b67565b5b0492506040810190505b6d04ee2d6d415b85acef81000000008310611dcf576d04ee2d6d415b85acef81000000008381611dc557611dc4612b67565b5b0492506020810190505b662386f26fc100008310611dfe57662386f26fc100008381611df457611df3612b67565b5b0492506010810190505b6305f5e1008310611e27576305f5e1008381611e1d57611e1c612b67565b5b0492506008810190505b6127108310611e4c576127108381611e4257611e41612b67565b5b0492506004810190505b60648310611e6f5760648381611e6557611e64612b67565b5b0492506002810190505b600a8310611e7e576001810190505b80915050919050565b6000604051905090565b600080fd5b600080fd5b6000819050919050565b611eae81611e9b565b8114611eb957600080fd5b50565b600081359050611ecb81611ea5565b92915050565b600060208284031215611ee757611ee6611e91565b5b6000611ef584828501611ebc565b91505092915050565b60008115159050919050565b611f1381611efe565b82525050565b6000602082019050611f2e6000830184611f0a565b92915050565b611f3d81611e9b565b82525050565b6000602082019050611f586000830184611f34565b92915050565b60007fffffffff0000000000000000000000000000000000000000000000000000000082169050919050565b611f9381611f5e565b8114611f9e57600080fd5b50565b600081359050611fb081611f8a565b92915050565b600060208284031215611fcc57611fcb611e91565b5b6000611fda84828501611fa1565b91505092915050565b600081519050919050565b600082825260208201905092915050565b60005b8381101561201d578082015181840152602081019050612002565b60008484015250505050565b6000601f19601f8301169050919050565b600061204582611fe3565b61204f8185611fee565b935061205f818560208601611fff565b61206881612029565b840191505092915050565b6000602082019050818103600083015261208d818461203a565b905092915050565b600073ffffffffffffffffffffffffffffffffffffffff82169050919050565b60006120c082612095565b9050919050565b6120d0816120b5565b82525050565b60006020820190506120eb60008301846120c7565b92915050565b6120fa816120b5565b811461210557600080fd5b50565b600081359050612117816120f1565b92915050565b6000806040838503121561213457612133611e91565b5b600061214285828601612108565b925050602061215385828601611ebc565b9150509250929050565b60008060006060848603121561217657612175611e91565b5b600061218486828701612108565b935050602061219586828701612108565b92505060406121a686828701611ebc565b9150509250925092565b600080fd5b600080fd5b7f4e487b7100000000000000000000000000000000000000000000000000000000600052604160045260246000fd5b6121f282612029565b810181811067ffffffffffffffff82111715612211576122106121ba565b5b80604052505050565b6000612224611e87565b905061223082826121e9565b919050565b600067ffffffffffffffff8211156122505761224f6121ba565b5b61225982612029565b9050602081019050919050565b82818337600083830152505050565b600061228861228384612235565b61221a565b9050828152602081018484840111156122a4576122a36121b5565b5b6122af848285612266565b509392505050565b600082601f8301126122cc576122cb6121b0565b5b81356122dc848260208601612275565b91505092915050565b6000602082840312156122fb576122fa611e91565b5b600082013567ffffffffffffffff81111561231957612318611e96565b5b612325848285016122b7565b91505092915050565b60006020828403121561234457612343611e91565b5b600061235284828501612108565b91505092915050565b61236481611efe565b811461236f57600080fd5b50565b6000813590506123818161235b565b92915050565b6000806040838503121561239e5761239d611e91565b5b60006123ac85828601612108565b92505060206123bd85828601612372565b9150509250929050565b600067ffffffffffffffff8211156123e2576123e16121ba565b5b6123eb82612029565b9050602081019050919050565b600061240b612406846123c7565b61221a565b905082815260208101848484011115612427576124266121b5565b5b612432848285612266565b509392505050565b600082601f83011261244f5761244e6121b0565b5b813561245f8482602086016123f8565b91505092915050565b6000806000806080858703121561248257612481611e91565b5b600061249087828801612108565b94505060206124a187828801612108565b93505060406124b287828801611ebc565b925050606085013567ffffffffffffffff8111156124d3576124d2611e96565b5b6124df8782880161243a565b91505092959194509250565b6000806040838503121561250257612501611e91565b5b600061251085828601612108565b925050602061252185828601612108565b9150509250929050565b7f5573657220646f65736e2774206861766520612050726f66696c65204e465400600082015250565b6000612561601f83611fee565b915061256c8261252b565b602082019050919050565b6000602082019050818103600083015261259081612554565b9050919050565b7f496e76616c696420746f6b656e20494400000000000000000000000000000000600082015250565b60006125cd601083611fee565b91506125d882612597565b602082019050919050565b600060208201905081810360008301526125fc816125c0565b9050919050565b7f4e487b7100000000000000000000000000000000000000000000000000000000600052602260045260246000fd5b6000600282049050600182168061264a57607f821691505b60208210810361265d5761265c612603565b5b50919050565b600060608201905061267860008301866120c7565b6126856020830185611f34565b61269260408301846120c7565b949350505050565b600081905092915050565b60006126b082611fe3565b6126ba818561269a565b93506126ca818560208601611fff565b80840191505092915050565b60006126e282856126a5565b91506126ee82846126a5565b91508190509392505050565b7f5573657220616c72656164792068617320612050726f66696c65204e46540000600082015250565b6000612730601e83611fee565b915061273b826126fa565b602082019050919050565b6000602082019050818103600083015261275f81612723565b9050919050565b7f4e487b7100000000000000000000000000000000000000000000000000000000600052601160045260246000fd5b60006127a082611e9b565b91507fffffffffffffffffffffffffffffffffffffffffffffffffffffffffffffffff82036127d2576127d1612766565b5b600182019050919050565b60008190508160005260206000209050919050565b60006020601f8301049050919050565b600082821b905092915050565b60006008830261283f7fffffffffffffffffffffffffffffffffffffffffffffffffffffffffffffffff82612802565b6128498683612802565b95508019841693508086168417925050509392505050565b6000819050919050565b600061288661288161287c84611e9b565b612861565b611e9b565b9050919050565b6000819050919050565b6128a08361286b565b6128b46128ac8261288d565b84845461280f565b825550505050565b600090565b6128c96128bc565b6128d4818484612897565b505050565b5b818110156128f8576128ed6000826128c1565b6001810190506128da565b5050565b601f82111561293d5761290e816127dd565b612917846127f2565b81016020851015612926578190505b61293a612932856127f2565b8301826128d9565b50505b505050565b600082821c905092915050565b600061296060001984600802612942565b1980831691505092915050565b6000612979838361294f565b9150826002028217905092915050565b61299282611fe3565b67ffffffffffffffff8111156129ab576129aa6121ba565b5b6129b58254612632565b6129c08282856128fc565b600060209050601f8311600181146129f357600084156129e1578287015190505b6129eb858261296d565b865550612a53565b601f198416612a01866127dd565b60005b82811015612a2957848901518255600182019150602085019450602081019050612a04565b86831015612a465784890151612a42601f89168261294f565b8355505b6001600288020188555050505b505050505050565b600081519050919050565b600082825260208201905092915050565b6000612a8282612a5b565b612a8c8185612a66565b9350612a9c818560208601611fff565b612aa581612029565b840191505092915050565b6000608082019050612ac560008301876120c7565b612ad260208301866120c7565b612adf6040830185611f34565b8181036060830152612af18184612a77565b905095945050505050565b600081519050612b0b81611f8a565b92915050565b600060208284031215612b2757612b26611e91565b5b6000612b3584828501612afc565b91505092915050565b6000604082019050612b5360008301856120c7565b612b606020830184611f34565b9392505050565b7f4e487b7100000000000000000000000000000000000000000000000000000000600052601260045260246000fdfea2646970667358221220c3e3b1734944437e58c88f4aed53461681f95b2f303fc829daf7615346cee59364736f6c63430008140033",
  "linkReferences": {},
  "deployedLinkReferences": {}
}