{
  "_format": "hh-sol-artifact-1",
  "contractName": "MakeNFT2",
  "sourceName": "contracts/MakeNFT2.sol",
  "abi": [
    {
      "inputs": [],
      "stateMutability": "nonpayable",
      "type": "constructor"
    },
    {
      "inputs": [
        {
          "internalType": "address",
          "name": "sender",
          "type": "address"
        },
        {
          "internalType": "uint256",
          "name": "tokenId",
          "type": "uint256"
        },
        {
          "internalType": "address",
          "name": "owner",
          "type": "address"
        }
      ],
      "name": "ERC721IncorrectOwner",
      "type": "error"
    },
    {
      "inputs": [
        {
          "internalType": "address",
          "name": "operator",
          "type": "address"
        },
        {
          "internalType": "uint256",
          "name": "tokenId",
          "type": "uint256"
        }
      ],
      "name": "ERC721InsufficientApproval",
      "type": "error"
    },
    {
      "inputs": [
        {
          "internalType": "address",
          "name": "approver",
          "type": "address"
        }
      ],
      "name": "ERC721InvalidApprover",
      "type": "error"
    },
    {
      "inputs": [
        {
          "internalType": "address",
          "name": "operator",
          "type": "address"
        }
      ],
      "name": "ERC721InvalidOperator",
      "type": "error"
    },
    {
      "inputs": [
        {
          "internalType": "address",
          "name": "owner",
          "type": "address"
        }
      ],
      "name": "ERC721InvalidOwner",
      "type": "error"
    },
    {
      "inputs": [
        {
          "internalType": "address",
          "name": "receiver",
          "type": "address"
        }
      ],
      "name": "ERC721InvalidReceiver",
      "type": "error"
    },
    {
      "inputs": [
        {
          "internalType": "address",
          "name": "sender",
          "type": "address"
        }
      ],
      "name": "ERC721InvalidSender",
      "type": "error"
    },
    {
      "inputs": [
        {
          "internalType": "uint256",
          "name": "tokenId",
          "type": "uint256"
        }
      ],
      "name": "ERC721NonexistentToken",
      "type": "error"
    },
    {
      "inputs": [
        {
          "internalType": "address",
          "name": "owner",
          "type": "address"
        }
      ],
      "name": "OwnableInvalidOwner",
      "type": "error"
    },
    {
      "inputs": [
        {
          "internalType": "address",
          "name": "account",
          "type": "address"
        }
      ],
      "name": "OwnableUnauthorizedAccount",
      "type": "error"
    },
    {
      "anonymous": false,
      "inputs": [
        {
          "indexed": true,
          "internalType": "address",
          "name": "owner",
          "type": "address"
        },
        {
          "indexed": true,
          "internalType": "address",
          "name": "approved",
          "type": "address"
        },
        {
          "indexed": true,
          "internalType": "uint256",
          "name": "tokenId",
          "type": "uint256"
        }
      ],
      "name": "Approval",
      "type": "event"
    },
    {
      "anonymous": false,
      "inputs": [
        {
          "indexed": true,
          "internalType": "address",
          "name": "owner",
          "type": "address"
        },
        {
          "indexed": true,
          "internalType": "address",
          "name": "operator",
          "type": "address"
        },
        {
          "indexed": false,
          "internalType": "bool",
          "name": "approved",
          "type": "bool"
        }
      ],
      "name": "ApprovalForAll",
      "type": "event"
    },
    {
      "anonymous": false,
      "inputs": [
        {
          "indexed": false,
          "internalType": "uint256",
          "name": "_fromTokenId",
          "type": "uint256"
        },
        {
          "indexed": false,
          "internalType": "uint256",
          "name": "_toTokenId",
          "type": "uint256"
        }
      ],
      "name": "BatchMetadataUpdate",
      "type": "event"
    },
    {
      "anonymous": false,
      "inputs": [
        {
          "indexed": false,
          "internalType": "uint256",
          "name": "_tokenId",
          "type": "uint256"
        }
      ],
      "name": "MetadataUpdate",
      "type": "event"
    },
    {
      "anonymous": false,
      "inputs": [
        {
          "indexed": true,
          "internalType": "address",
          "name": "previousOwner",
          "type": "address"
        },
        {
          "indexed": true,
          "internalType": "address",
          "name": "newOwner",
          "type": "address"
        }
      ],
      "name": "OwnershipTransferred",
      "type": "event"
    },
    {
      "anonymous": false,
      "inputs": [
        {
          "indexed": true,
          "internalType": "address",
          "name": "from",
          "type": "address"
        },
        {
          "indexed": true,
          "internalType": "address",
          "name": "to",
          "type": "address"
        },
        {
          "indexed": true,
          "internalType": "uint256",
          "name": "tokenId",
          "type": "uint256"
        }
      ],
      "name": "Transfer",
      "type": "event"
    },
    {
      "inputs": [
        {
          "internalType": "address",
          "name": "to",
          "type": "address"
        },
        {
          "internalType": "uint256",
          "name": "tokenId",
          "type": "uint256"
        }
      ],
      "name": "approve",
      "outputs": [],
      "stateMutability": "nonpayable",
      "type": "function"
    },
    {
      "inputs": [
        {
          "internalType": "address",
          "name": "owner",
          "type": "address"
        }
      ],
      "name": "balanceOf",
      "outputs": [
        {
          "internalType": "uint256",
          "name": "",
          "type": "uint256"
        }
      ],
      "stateMutability": "view",
      "type": "function"
    },
    {
      "inputs": [
        {
          "internalType": "address",
          "name": "addr",
          "type": "address"
        }
      ],
      "name": "deleteNFT",
      "outputs": [],
      "stateMutability": "nonpayable",
      "type": "function"
    },
    {
      "inputs": [
        {
          "internalType": "uint256",
          "name": "tokenId",
          "type": "uint256"
        }
      ],
      "name": "getApproved",
      "outputs": [
        {
          "internalType": "address",
          "name": "",
          "type": "address"
        }
      ],
      "stateMutability": "view",
      "type": "function"
    },
    {
      "inputs": [
        {
          "internalType": "address",
          "name": "addr",
          "type": "address"
        }
      ],
      "name": "getProfile",
      "outputs": [
        {
          "internalType": "string",
          "name": "",
          "type": "string"
        }
      ],
      "stateMutability": "view",
      "type": "function"
    },
    {
      "inputs": [
        {
          "internalType": "address",
          "name": "addr",
          "type": "address"
        }
      ],
      "name": "getTokenId",
      "outputs": [
        {
          "internalType": "uint256",
          "name": "",
          "type": "uint256"
        }
      ],
      "stateMutability": "view",
      "type": "function"
    },
    {
      "inputs": [
        {
          "internalType": "address",
          "name": "owner",
          "type": "address"
        },
        {
          "internalType": "address",
          "name": "operator",
          "type": "address"
        }
      ],
      "name": "isApprovedForAll",
      "outputs": [
        {
          "internalType": "bool",
          "name": "",
          "type": "bool"
        }
      ],
      "stateMutability": "view",
      "type": "function"
    },
    {
      "inputs": [
        {
          "internalType": "address",
          "name": "addr",
          "type": "address"
        }
      ],
      "name": "isMinted",
      "outputs": [
        {
          "internalType": "bool",
          "name": "",
          "type": "bool"
        }
      ],
      "stateMutability": "view",
      "type": "function"
    },
    {
      "inputs": [
        {
          "internalType": "address",
          "name": "addr",
          "type": "address"
        },
        {
          "internalType": "string",
          "name": "uri",
          "type": "string"
        }
      ],
      "name": "mint",
      "outputs": [],
      "stateMutability": "nonpayable",
      "type": "function"
    },
    {
      "inputs": [],
      "name": "name",
      "outputs": [
        {
          "internalType": "string",
          "name": "",
          "type": "string"
        }
      ],
      "stateMutability": "view",
      "type": "function"
    },
    {
      "inputs": [],
      "name": "owner",
      "outputs": [
        {
          "internalType": "address",
          "name": "",
          "type": "address"
        }
      ],
      "stateMutability": "view",
      "type": "function"
    },
    {
      "inputs": [
        {
          "internalType": "uint256",
          "name": "tokenId",
          "type": "uint256"
        }
      ],
      "name": "ownerOf",
      "outputs": [
        {
          "internalType": "address",
          "name": "",
          "type": "address"
        }
      ],
      "stateMutability": "view",
      "type": "function"
    },
    {
      "inputs": [],
      "name": "renounceOwnership",
      "outputs": [],
      "stateMutability": "nonpayable",
      "type": "function"
    },
    {
      "inputs": [
        {
          "internalType": "address",
          "name": "from",
          "type": "address"
        },
        {
          "internalType": "address",
          "name": "to",
          "type": "address"
        },
        {
          "internalType": "uint256",
          "name": "tokenId",
          "type": "uint256"
        }
      ],
      "name": "safeTransferFrom",
      "outputs": [],
      "stateMutability": "nonpayable",
      "type": "function"
    },
    {
      "inputs": [
        {
          "internalType": "address",
          "name": "from",
          "type": "address"
        },
        {
          "internalType": "address",
          "name": "to",
          "type": "address"
        },
        {
          "internalType": "uint256",
          "name": "tokenId",
          "type": "uint256"
        },
        {
          "internalType": "bytes",
          "name": "data",
          "type": "bytes"
        }
      ],
      "name": "safeTransferFrom",
      "outputs": [],
      "stateMutability": "nonpayable",
      "type": "function"
    },
    {
      "inputs": [
        {
          "internalType": "address",
          "name": "operator",
          "type": "address"
        },
        {
          "internalType": "bool",
          "name": "approved",
          "type": "bool"
        }
      ],
      "name": "setApprovalForAll",
      "outputs": [],
      "stateMutability": "nonpayable",
      "type": "function"
    },
    {
      "inputs": [
        {
          "internalType": "address",
          "name": "addr",
          "type": "address"
        },
        {
          "internalType": "string",
          "name": "uri",
          "type": "string"
        }
      ],
      "name": "setNFT",
      "outputs": [],
      "stateMutability": "nonpayable",
      "type": "function"
    },
    {
      "inputs": [
        {
          "internalType": "bytes4",
          "name": "interfaceId",
          "type": "bytes4"
        }
      ],
      "name": "supportsInterface",
      "outputs": [
        {
          "internalType": "bool",
          "name": "",
          "type": "bool"
        }
      ],
      "stateMutability": "view",
      "type": "function"
    },
    {
      "inputs": [],
      "name": "symbol",
      "outputs": [
        {
          "internalType": "string",
          "name": "",
          "type": "string"
        }
      ],
      "stateMutability": "view",
      "type": "function"
    },
    {
      "inputs": [
        {
          "internalType": "uint256",
          "name": "_tokenId",
          "type": "uint256"
        }
      ],
      "name": "tokenExists",
      "outputs": [
        {
          "internalType": "bool",
          "name": "",
          "type": "bool"
        }
      ],
      "stateMutability": "view",
      "type": "function"
    },
    {
      "inputs": [
        {
          "internalType": "uint256",
          "name": "tokenId",
          "type": "uint256"
        }
      ],
      "name": "tokenURI",
      "outputs": [
        {
          "internalType": "string",
          "name": "",
          "type": "string"
        }
      ],
      "stateMutability": "view",
      "type": "function"
    },
    {
      "inputs": [
        {
          "internalType": "address",
          "name": "from",
          "type": "address"
        },
        {
          "internalType": "address",
          "name": "to",
          "type": "address"
        },
        {
          "internalType": "uint256",
          "name": "tokenId",
          "type": "uint256"
        }
      ],
      "name": "transferFrom",
      "outputs": [],
      "stateMutability": "nonpayable",
      "type": "function"
    },
    {
      "inputs": [
        {
          "internalType": "address",
          "name": "newOwner",
          "type": "address"
        }
      ],
      "name": "transferOwnership",
      "outputs": [],
      "stateMutability": "nonpayable",
      "type": "function"
    }
  ],
  "bytecode": "0x608060405260006008553480156200001657600080fd5b50336040518060400160405280600781526020017f50726f66696c65000000000000000000000000000000000000000000000000008152506040518060400160405280600481526020017f5052464c00000000000000000000000000000000000000000000000000000000815250816000908162000095919062000477565b508060019081620000a7919062000477565b505050600073ffffffffffffffffffffffffffffffffffffffff168173ffffffffffffffffffffffffffffffffffffffff16036200011f5760006040517f1e4fbdf7000000000000000000000000000000000000000000000000000000008152600401620001169190620005a3565b60405180910390fd5b62000130816200013760201b60201c565b50620005c0565b6000600760009054906101000a900473ffffffffffffffffffffffffffffffffffffffff16905081600760006101000a81548173ffffffffffffffffffffffffffffffffffffffff021916908373ffffffffffffffffffffffffffffffffffffffff1602179055508173ffffffffffffffffffffffffffffffffffffffff168173ffffffffffffffffffffffffffffffffffffffff167f8be0079c531659141344cd1fd0a4f28419497f9722a3daafe3b4186f6b6457e060405160405180910390a35050565b600081519050919050565b7f4e487b7100000000000000000000000000000000000000000000000000000000600052604160045260246000fd5b7f4e487b7100000000000000000000000000000000000000000000000000000000600052602260045260246000fd5b600060028204905060018216806200027f57607f821691505b60208210810362000295576200029462000237565b5b50919050565b60008190508160005260206000209050919050565b60006020601f8301049050919050565b600082821b905092915050565b600060088302620002ff7fffffffffffffffffffffffffffffffffffffffffffffffffffffffffffffffff82620002c0565b6200030b8683620002c0565b95508019841693508086168417925050509392505050565b6000819050919050565b6000819050919050565b600062000358620003526200034c8462000323565b6200032d565b62000323565b9050919050565b6000819050919050565b620003748362000337565b6200038c62000383826200035f565b848454620002cd565b825550505050565b600090565b620003a362000394565b620003b081848462000369565b505050565b5b81811015620003d857620003cc60008262000399565b600181019050620003b6565b5050565b601f8211156200042757620003f1816200029b565b620003fc84620002b0565b810160208510156200040c578190505b620004246200041b85620002b0565b830182620003b5565b50505b505050565b600082821c905092915050565b60006200044c600019846008026200042c565b1980831691505092915050565b600062000467838362000439565b9150826002028217905092915050565b6200048282620001fd565b67ffffffffffffffff8111156200049e576200049d62000208565b5b620004aa825462000266565b620004b7828285620003dc565b600060209050601f831160018114620004ef5760008415620004da578287015190505b620004e6858262000459565b86555062000556565b601f198416620004ff866200029b565b60005b82811015620005295784890151825560018201915060208501945060208101905062000502565b8683101562000549578489015162000545601f89168262000439565b8355505b6001600288020188555050505b505050505050565b600073ffffffffffffffffffffffffffffffffffffffff82169050919050565b60006200058b826200055e565b9050919050565b6200059d816200057e565b82525050565b6000602082019050620005ba600083018462000592565b92915050565b612d2e80620005d06000396000f3fe608060405234801561001057600080fd5b506004361061014c5760003560e01c8063715018a6116100c3578063c87b56dd1161007c578063c87b56dd14610399578063d0def521146103c9578063e985e9c5146103e5578063f153768614610415578063f2fde38b14610445578063f9f2a7ce146104615761014c565b8063715018a6146102ff57806384799eac146103095780638da5cb5b1461032557806395d89b4114610343578063a22cb46514610361578063b88d4fde1461037d5761014c565b80630f53a470116101155780630f53a4701461021b57806323b872dd1461024b57806342842e0e1461026757806352d218ba146102835780636352211e1461029f57806370a08231146102cf5761014c565b8062923f9e1461015157806301ffc9a71461018157806306fdde03146101b1578063081812fc146101cf578063095ea7b3146101ff575b600080fd5b61016b60048036038101906101669190612020565b610491565b6040516101789190612068565b60405180910390f35b61019b600480360381019061019691906120db565b6104db565b6040516101a89190612068565b60405180910390f35b6101b961053c565b6040516101c69190612198565b60405180910390f35b6101e960048036038101906101e49190612020565b6105ce565b6040516101f691906121fb565b60405180910390f35b61021960048036038101906102149190612242565b6105ea565b005b61023560048036038101906102309190612282565b610600565b6040516102429190612198565b60405180910390f35b610265600480360381019061026091906122af565b6106a4565b005b610281600480360381019061027c91906122af565b6107a6565b005b61029d60048036038101906102989190612437565b6107c6565b005b6102b960048036038101906102b49190612020565b610866565b6040516102c691906121fb565b60405180910390f35b6102e960048036038101906102e49190612282565b610878565b6040516102f691906124a2565b60405180910390f35b610307610932565b005b610323600480360381019061031e9190612282565b610946565b005b61032d610a2d565b60405161033a91906121fb565b60405180910390f35b61034b610a57565b6040516103589190612198565b60405180910390f35b61037b600480360381019061037691906124e9565b610ae9565b005b610397600480360381019061039291906125ca565b610aff565b005b6103b360048036038101906103ae9190612020565b610b24565b6040516103c09190612198565b60405180910390f35b6103e360048036038101906103de9190612437565b610c37565b005b6103ff60048036038101906103fa919061264d565b610d04565b60405161040c9190612068565b60405180910390f35b61042f600480360381019061042a9190612282565b610d98565b60405161043c91906124a2565b60405180910390f35b61045f600480360381019061045a9190612282565b610e7e565b005b61047b60048036038101906104769190612282565b610f04565b6040516104889190612068565b60405180910390f35b600061049b610f21565b600073ffffffffffffffffffffffffffffffffffffffff166104bc83610fa8565b73ffffffffffffffffffffffffffffffffffffffff1614159050919050565b6000634906490660e01b7bffffffffffffffffffffffffffffffffffffffffffffffffffffffff1916827bffffffffffffffffffffffffffffffffffffffffffffffffffffffff19161480610535575061053482610fe5565b5b9050919050565b60606000805461054b906126bc565b80601f0160208091040260200160405190810160405280929190818152602001828054610577906126bc565b80156105c45780601f10610599576101008083540402835291602001916105c4565b820191906000526020600020905b8154815290600101906020018083116105a757829003601f168201915b5050505050905090565b60006105d9826110c7565b506105e38261114f565b9050919050565b6105fc82826105f761118c565b611194565b5050565b606061060a610f21565b600061061583610878565b11610655576040517f08c379a000000000000000000000000000000000000000000000000000000000815260040161064c90612739565b60405180910390fd5b61069d600960008473ffffffffffffffffffffffffffffffffffffffff1673ffffffffffffffffffffffffffffffffffffffff16815260200190815260200160002054610b24565b9050919050565b600073ffffffffffffffffffffffffffffffffffffffff168273ffffffffffffffffffffffffffffffffffffffff16036107165760006040517f64a0ae9200000000000000000000000000000000000000000000000000000000815260040161070d91906121fb565b60405180910390fd5b600061072a838361072561118c565b6111a6565b90508373ffffffffffffffffffffffffffffffffffffffff168173ffffffffffffffffffffffffffffffffffffffff16146107a0578382826040517f64283d7b00000000000000000000000000000000000000000000000000000000815260040161079793929190612759565b60405180910390fd5b50505050565b6107c183838360405180602001604052806000815250610aff565b505050565b6107ce610f21565b60006107d983610878565b11610819576040517f08c379a000000000000000000000000000000000000000000000000000000000815260040161081090612739565b60405180910390fd5b610862600960008473ffffffffffffffffffffffffffffffffffffffff1673ffffffffffffffffffffffffffffffffffffffff16815260200190815260200160002054826113c0565b5050565b6000610871826110c7565b9050919050565b60008073ffffffffffffffffffffffffffffffffffffffff168273ffffffffffffffffffffffffffffffffffffffff16036108eb5760006040517f89c62b640000000000000000000000000000000000000000000000000000000081526004016108e291906121fb565b60405180910390fd5b600360008373ffffffffffffffffffffffffffffffffffffffff1673ffffffffffffffffffffffffffffffffffffffff168152602001908152602001600020549050919050565b61093a610f21565b610944600061141c565b565b61094e610f21565b600061095982610878565b11610999576040517f08c379a000000000000000000000000000000000000000000000000000000000815260040161099090612739565b60405180910390fd5b6000600960008373ffffffffffffffffffffffffffffffffffffffff1673ffffffffffffffffffffffffffffffffffffffff168152602001908152602001600020549050600960008373ffffffffffffffffffffffffffffffffffffffff1673ffffffffffffffffffffffffffffffffffffffff16815260200190815260200160002060009055610a29816114e2565b5050565b6000600760009054906101000a900473ffffffffffffffffffffffffffffffffffffffff16905090565b606060018054610a66906126bc565b80601f0160208091040260200160405190810160405280929190818152602001828054610a92906126bc565b8015610adf5780601f10610ab457610100808354040283529160200191610adf565b820191906000526020600020905b815481529060010190602001808311610ac257829003601f168201915b5050505050905090565b610afb610af461118c565b8383611568565b5050565b610b0a8484846106a4565b610b1e610b1561118c565b858585856116d7565b50505050565b6060610b2f826110c7565b506000600660008481526020019081526020016000208054610b50906126bc565b80601f0160208091040260200160405190810160405280929190818152602001828054610b7c906126bc565b8015610bc95780601f10610b9e57610100808354040283529160200191610bc9565b820191906000526020600020905b815481529060010190602001808311610bac57829003601f168201915b505050505090506000610bda611888565b90506000815103610bef578192505050610c32565b600082511115610c24578082604051602001610c0c9291906127cc565b60405160208183030381529060405292505050610c32565b610c2d8461189f565b925050505b919050565b610c3f610f21565b6000610c4a83610878565b14610c8a576040517f08c379a0000000000000000000000000000000000000000000000000000000008152600401610c819061283c565b60405180910390fd5b610c9682600854611908565b610ca2600854826113c0565b600854600960008473ffffffffffffffffffffffffffffffffffffffff1673ffffffffffffffffffffffffffffffffffffffff1681526020019081526020016000208190555060086000815480929190610cfb9061288b565b91905055505050565b6000600560008473ffffffffffffffffffffffffffffffffffffffff1673ffffffffffffffffffffffffffffffffffffffff16815260200190815260200160002060008373ffffffffffffffffffffffffffffffffffffffff1673ffffffffffffffffffffffffffffffffffffffff16815260200190815260200160002060009054906101000a900460ff16905092915050565b6000610da2610f21565b6000610dad83610878565b11610ded576040517f08c379a0000000000000000000000000000000000000000000000000000000008152600401610de490612739565b60405180910390fd5b6000600960008473ffffffffffffffffffffffffffffffffffffffff1673ffffffffffffffffffffffffffffffffffffffff1681526020019081526020016000205490506008548110610e75576040517f08c379a0000000000000000000000000000000000000000000000000000000008152600401610e6c9061291f565b60405180910390fd5b80915050919050565b610e86610f21565b600073ffffffffffffffffffffffffffffffffffffffff168173ffffffffffffffffffffffffffffffffffffffff1603610ef85760006040517f1e4fbdf7000000000000000000000000000000000000000000000000000000008152600401610eef91906121fb565b60405180910390fd5b610f018161141c565b50565b6000610f0e610f21565b6000610f1983610878565b119050919050565b610f2961118c565b73ffffffffffffffffffffffffffffffffffffffff16610f47610a2d565b73ffffffffffffffffffffffffffffffffffffffff1614610fa657610f6a61118c565b6040517f118cdaa7000000000000000000000000000000000000000000000000000000008152600401610f9d91906121fb565b60405180910390fd5b565b60006002600083815260200190815260200160002060009054906101000a900473ffffffffffffffffffffffffffffffffffffffff169050919050565b60007f80ac58cd000000000000000000000000000000000000000000000000000000007bffffffffffffffffffffffffffffffffffffffffffffffffffffffff1916827bffffffffffffffffffffffffffffffffffffffffffffffffffffffff191614806110b057507f5b5e139f000000000000000000000000000000000000000000000000000000007bffffffffffffffffffffffffffffffffffffffffffffffffffffffff1916827bffffffffffffffffffffffffffffffffffffffffffffffffffffffff1916145b806110c057506110bf82611a01565b5b9050919050565b6000806110d383610fa8565b9050600073ffffffffffffffffffffffffffffffffffffffff168173ffffffffffffffffffffffffffffffffffffffff160361114657826040517f7e27328900000000000000000000000000000000000000000000000000000000815260040161113d91906124a2565b60405180910390fd5b80915050919050565b60006004600083815260200190815260200160002060009054906101000a900473ffffffffffffffffffffffffffffffffffffffff169050919050565b600033905090565b6111a18383836001611a6b565b505050565b6000806111b284610fa8565b9050600073ffffffffffffffffffffffffffffffffffffffff168373ffffffffffffffffffffffffffffffffffffffff16146111f4576111f3818486611c30565b5b600073ffffffffffffffffffffffffffffffffffffffff168173ffffffffffffffffffffffffffffffffffffffff161461128557611236600085600080611a6b565b6001600360008373ffffffffffffffffffffffffffffffffffffffff1673ffffffffffffffffffffffffffffffffffffffff168152602001908152602001600020600082825403925050819055505b600073ffffffffffffffffffffffffffffffffffffffff168573ffffffffffffffffffffffffffffffffffffffff1614611308576001600360008773ffffffffffffffffffffffffffffffffffffffff1673ffffffffffffffffffffffffffffffffffffffff168152602001908152602001600020600082825401925050819055505b846002600086815260200190815260200160002060006101000a81548173ffffffffffffffffffffffffffffffffffffffff021916908373ffffffffffffffffffffffffffffffffffffffff160217905550838573ffffffffffffffffffffffffffffffffffffffff168273ffffffffffffffffffffffffffffffffffffffff167fddf252ad1be2c89b69c2b068fc378daa952ba7f163c4a11628f55a4df523b3ef60405160405180910390a4809150509392505050565b806006600084815260200190815260200160002090816113e09190612aeb565b507ff8e1a15aba9398e019f0b49df1a4fde98ee17ae345cb5f6b5e2c27f5033e8ce78260405161141091906124a2565b60405180910390a15050565b6000600760009054906101000a900473ffffffffffffffffffffffffffffffffffffffff16905081600760006101000a81548173ffffffffffffffffffffffffffffffffffffffff021916908373ffffffffffffffffffffffffffffffffffffffff1602179055508173ffffffffffffffffffffffffffffffffffffffff168173ffffffffffffffffffffffffffffffffffffffff167f8be0079c531659141344cd1fd0a4f28419497f9722a3daafe3b4186f6b6457e060405160405180910390a35050565b60006114f160008360006111a6565b9050600073ffffffffffffffffffffffffffffffffffffffff168173ffffffffffffffffffffffffffffffffffffffff160361156457816040517f7e27328900000000000000000000000000000000000000000000000000000000815260040161155b91906124a2565b60405180910390fd5b5050565b600073ffffffffffffffffffffffffffffffffffffffff168273ffffffffffffffffffffffffffffffffffffffff16036115d957816040517f5b08ba180000000000000000000000000000000000000000000000000000000081526004016115d091906121fb565b60405180910390fd5b80600560008573ffffffffffffffffffffffffffffffffffffffff1673ffffffffffffffffffffffffffffffffffffffff16815260200190815260200160002060008473ffffffffffffffffffffffffffffffffffffffff1673ffffffffffffffffffffffffffffffffffffffff16815260200190815260200160002060006101000a81548160ff0219169083151502179055508173ffffffffffffffffffffffffffffffffffffffff168373ffffffffffffffffffffffffffffffffffffffff167f17307eab39ab6107e8899845ad3d59bd9653f200f220920489ca2b5937696c31836040516116ca9190612068565b60405180910390a3505050565b60008373ffffffffffffffffffffffffffffffffffffffff163b1115611881578273ffffffffffffffffffffffffffffffffffffffff1663150b7a02868685856040518563ffffffff1660e01b81526004016117369493929190612c12565b6020604051808303816000875af192505050801561177257506040513d601f19601f8201168201806040525081019061176f9190612c73565b60015b6117f6573d80600081146117a2576040519150601f19603f3d011682016040523d82523d6000602084013e6117a7565b606091505b5060008151036117ee57836040517f64a0ae920000000000000000000000000000000000000000000000000000000081526004016117e591906121fb565b60405180910390fd5b805181602001fd5b63150b7a0260e01b7bffffffffffffffffffffffffffffffffffffffffffffffffffffffff1916817bffffffffffffffffffffffffffffffffffffffffffffffffffffffff19161461187f57836040517f64a0ae9200000000000000000000000000000000000000000000000000000000815260040161187691906121fb565b60405180910390fd5b505b5050505050565b606060405180602001604052806000815250905090565b60606118aa826110c7565b5060006118b5611888565b905060008151116118d55760405180602001604052806000815250611900565b806118df84611cf4565b6040516020016118f09291906127cc565b6040516020818303038152906040525b915050919050565b600073ffffffffffffffffffffffffffffffffffffffff168273ffffffffffffffffffffffffffffffffffffffff160361197a5760006040517f64a0ae9200000000000000000000000000000000000000000000000000000000815260040161197191906121fb565b60405180910390fd5b6000611988838360006111a6565b9050600073ffffffffffffffffffffffffffffffffffffffff168173ffffffffffffffffffffffffffffffffffffffff16146119fc5760006040517f73c6ac6e0000000000000000000000000000000000000000000000000000000081526004016119f391906121fb565b60405180910390fd5b505050565b60007f01ffc9a7000000000000000000000000000000000000000000000000000000007bffffffffffffffffffffffffffffffffffffffffffffffffffffffff1916827bffffffffffffffffffffffffffffffffffffffffffffffffffffffff1916149050919050565b8080611aa45750600073ffffffffffffffffffffffffffffffffffffffff168273ffffffffffffffffffffffffffffffffffffffff1614155b15611bd8576000611ab4846110c7565b9050600073ffffffffffffffffffffffffffffffffffffffff168373ffffffffffffffffffffffffffffffffffffffff1614158015611b1f57508273ffffffffffffffffffffffffffffffffffffffff168173ffffffffffffffffffffffffffffffffffffffff1614155b8015611b325750611b308184610d04565b155b15611b7457826040517fa9fbf51f000000000000000000000000000000000000000000000000000000008152600401611b6b91906121fb565b60405180910390fd5b8115611bd657838573ffffffffffffffffffffffffffffffffffffffff168273ffffffffffffffffffffffffffffffffffffffff167f8c5be1e5ebec7d5bd14f71427d1e84f3dd0314c0f7b2291e5b200ac8c7c3b92560405160405180910390a45b505b836004600085815260200190815260200160002060006101000a81548173ffffffffffffffffffffffffffffffffffffffff021916908373ffffffffffffffffffffffffffffffffffffffff16021790555050505050565b611c3b838383611dc2565b611cef57600073ffffffffffffffffffffffffffffffffffffffff168373ffffffffffffffffffffffffffffffffffffffff1603611cb057806040517f7e273289000000000000000000000000000000000000000000000000000000008152600401611ca791906124a2565b60405180910390fd5b81816040517f177e802f000000000000000000000000000000000000000000000000000000008152600401611ce6929190612ca0565b60405180910390fd5b505050565b606060006001611d0384611e83565b01905060008167ffffffffffffffff811115611d2257611d2161230c565b5b6040519080825280601f01601f191660200182016040528015611d545781602001600182028036833780820191505090505b509050600082602001820190505b600115611db7578080600190039150507f3031323334353637383961626364656600000000000000000000000000000000600a86061a8153600a8581611dab57611daa612cc9565b5b04945060008503611d62575b819350505050919050565b60008073ffffffffffffffffffffffffffffffffffffffff168373ffffffffffffffffffffffffffffffffffffffff1614158015611e7a57508273ffffffffffffffffffffffffffffffffffffffff168473ffffffffffffffffffffffffffffffffffffffff161480611e3b5750611e3a8484610d04565b5b80611e7957508273ffffffffffffffffffffffffffffffffffffffff16611e618361114f565b73ffffffffffffffffffffffffffffffffffffffff16145b5b90509392505050565b600080600090507a184f03e93ff9f4daa797ed6e38ed64bf6a1f0100000000000000008310611ee1577a184f03e93ff9f4daa797ed6e38ed64bf6a1f0100000000000000008381611ed757611ed6612cc9565b5b0492506040810190505b6d04ee2d6d415b85acef81000000008310611f1e576d04ee2d6d415b85acef81000000008381611f1457611f13612cc9565b5b0492506020810190505b662386f26fc100008310611f4d57662386f26fc100008381611f4357611f42612cc9565b5b0492506010810190505b6305f5e1008310611f76576305f5e1008381611f6c57611f6b612cc9565b5b0492506008810190505b6127108310611f9b576127108381611f9157611f90612cc9565b5b0492506004810190505b60648310611fbe5760648381611fb457611fb3612cc9565b5b0492506002810190505b600a8310611fcd576001810190505b80915050919050565b6000604051905090565b600080fd5b600080fd5b6000819050919050565b611ffd81611fea565b811461200857600080fd5b50565b60008135905061201a81611ff4565b92915050565b60006020828403121561203657612035611fe0565b5b60006120448482850161200b565b91505092915050565b60008115159050919050565b6120628161204d565b82525050565b600060208201905061207d6000830184612059565b92915050565b60007fffffffff0000000000000000000000000000000000000000000000000000000082169050919050565b6120b881612083565b81146120c357600080fd5b50565b6000813590506120d5816120af565b92915050565b6000602082840312156120f1576120f0611fe0565b5b60006120ff848285016120c6565b91505092915050565b600081519050919050565b600082825260208201905092915050565b60005b83811015612142578082015181840152602081019050612127565b60008484015250505050565b6000601f19601f8301169050919050565b600061216a82612108565b6121748185612113565b9350612184818560208601612124565b61218d8161214e565b840191505092915050565b600060208201905081810360008301526121b2818461215f565b905092915050565b600073ffffffffffffffffffffffffffffffffffffffff82169050919050565b60006121e5826121ba565b9050919050565b6121f5816121da565b82525050565b600060208201905061221060008301846121ec565b92915050565b61221f816121da565b811461222a57600080fd5b50565b60008135905061223c81612216565b92915050565b6000806040838503121561225957612258611fe0565b5b60006122678582860161222d565b92505060206122788582860161200b565b9150509250929050565b60006020828403121561229857612297611fe0565b5b60006122a68482850161222d565b91505092915050565b6000806000606084860312156122c8576122c7611fe0565b5b60006122d68682870161222d565b93505060206122e78682870161222d565b92505060406122f88682870161200b565b9150509250925092565b600080fd5b600080fd5b7f4e487b7100000000000000000000000000000000000000000000000000000000600052604160045260246000fd5b6123448261214e565b810181811067ffffffffffffffff821117156123635761236261230c565b5b80604052505050565b6000612376611fd6565b9050612382828261233b565b919050565b600067ffffffffffffffff8211156123a2576123a161230c565b5b6123ab8261214e565b9050602081019050919050565b82818337600083830152505050565b60006123da6123d584612387565b61236c565b9050828152602081018484840111156123f6576123f5612307565b5b6124018482856123b8565b509392505050565b600082601f83011261241e5761241d612302565b5b813561242e8482602086016123c7565b91505092915050565b6000806040838503121561244e5761244d611fe0565b5b600061245c8582860161222d565b925050602083013567ffffffffffffffff81111561247d5761247c611fe5565b5b61248985828601612409565b9150509250929050565b61249c81611fea565b82525050565b60006020820190506124b76000830184612493565b92915050565b6124c68161204d565b81146124d157600080fd5b50565b6000813590506124e3816124bd565b92915050565b60008060408385031215612500576124ff611fe0565b5b600061250e8582860161222d565b925050602061251f858286016124d4565b9150509250929050565b600067ffffffffffffffff8211156125445761254361230c565b5b61254d8261214e565b9050602081019050919050565b600061256d61256884612529565b61236c565b90508281526020810184848401111561258957612588612307565b5b6125948482856123b8565b509392505050565b600082601f8301126125b1576125b0612302565b5b81356125c184826020860161255a565b91505092915050565b600080600080608085870312156125e4576125e3611fe0565b5b60006125f28782880161222d565b94505060206126038782880161222d565b93505060406126148782880161200b565b925050606085013567ffffffffffffffff81111561263557612634611fe5565b5b6126418782880161259c565b91505092959194509250565b6000806040838503121561266457612663611fe0565b5b60006126728582860161222d565b92505060206126838582860161222d565b9150509250929050565b7f4e487b7100000000000000000000000000000000000000000000000000000000600052602260045260246000fd5b600060028204905060018216806126d457607f821691505b6020821081036126e7576126e661268d565b5b50919050565b7f5573657220646f65736e2774206861766520612050726f66696c65204e465400600082015250565b6000612723601f83612113565b915061272e826126ed565b602082019050919050565b6000602082019050818103600083015261275281612716565b9050919050565b600060608201905061276e60008301866121ec565b61277b6020830185612493565b61278860408301846121ec565b949350505050565b600081905092915050565b60006127a682612108565b6127b08185612790565b93506127c0818560208601612124565b80840191505092915050565b60006127d8828561279b565b91506127e4828461279b565b91508190509392505050565b7f5573657220616c72656164792068617320612050726f66696c65204e46540000600082015250565b6000612826601e83612113565b9150612831826127f0565b602082019050919050565b6000602082019050818103600083015261285581612819565b9050919050565b7f4e487b7100000000000000000000000000000000000000000000000000000000600052601160045260246000fd5b600061289682611fea565b91507fffffffffffffffffffffffffffffffffffffffffffffffffffffffffffffffff82036128c8576128c761285c565b5b600182019050919050565b7f496e76616c696420746f6b656e20494400000000000000000000000000000000600082015250565b6000612909601083612113565b9150612914826128d3565b602082019050919050565b60006020820190508181036000830152612938816128fc565b9050919050565b60008190508160005260206000209050919050565b60006020601f8301049050919050565b600082821b905092915050565b6000600883026129a17fffffffffffffffffffffffffffffffffffffffffffffffffffffffffffffffff82612964565b6129ab8683612964565b95508019841693508086168417925050509392505050565b6000819050919050565b60006129e86129e36129de84611fea565b6129c3565b611fea565b9050919050565b6000819050919050565b612a02836129cd565b612a16612a0e826129ef565b848454612971565b825550505050565b600090565b612a2b612a1e565b612a368184846129f9565b505050565b5b81811015612a5a57612a4f600082612a23565b600181019050612a3c565b5050565b601f821115612a9f57612a708161293f565b612a7984612954565b81016020851015612a88578190505b612a9c612a9485612954565b830182612a3b565b50505b505050565b600082821c905092915050565b6000612ac260001984600802612aa4565b1980831691505092915050565b6000612adb8383612ab1565b9150826002028217905092915050565b612af482612108565b67ffffffffffffffff811115612b0d57612b0c61230c565b5b612b1782546126bc565b612b22828285612a5e565b600060209050601f831160018114612b555760008415612b43578287015190505b612b4d8582612acf565b865550612bb5565b601f198416612b638661293f565b60005b82811015612b8b57848901518255600182019150602085019450602081019050612b66565b86831015612ba85784890151612ba4601f891682612ab1565b8355505b6001600288020188555050505b505050505050565b600081519050919050565b600082825260208201905092915050565b6000612be482612bbd565b612bee8185612bc8565b9350612bfe818560208601612124565b612c078161214e565b840191505092915050565b6000608082019050612c2760008301876121ec565b612c3460208301866121ec565b612c416040830185612493565b8181036060830152612c538184612bd9565b905095945050505050565b600081519050612c6d816120af565b92915050565b600060208284031215612c8957612c88611fe0565b5b6000612c9784828501612c5e565b91505092915050565b6000604082019050612cb560008301856121ec565b612cc26020830184612493565b9392505050565b7f4e487b7100000000000000000000000000000000000000000000000000000000600052601260045260246000fdfea26469706673582212209933a8374438ad72b5201fe3557810319c6037d8cf331b2a5eb2c25ca16e22de64736f6c63430008140033",
  "linkReferences": {},
  "deployedLinkReferences": {}
}